{
  "contractName": "hack",
  "abi": [
    {
      "inputs": [],
      "payable": false,
      "stateMutability": "nonpayable",
      "type": "constructor"
    },
    {
      "constant": true,
      "inputs": [
        {
          "internalType": "bytes32",
          "name": "_bytes32",
          "type": "bytes32"
        }
      ],
      "name": "bytes32ToString",
      "outputs": [
        {
          "internalType": "string",
          "name": "",
          "type": "string"
        }
      ],
      "payable": false,
      "stateMutability": "pure",
      "type": "function"
    },
    {
      "constant": true,
      "inputs": [
        {
          "internalType": "string",
          "name": "source",
          "type": "string"
        }
      ],
      "name": "stringToBytes32",
      "outputs": [
        {
          "internalType": "bytes32",
          "name": "result",
          "type": "bytes32"
        }
      ],
      "payable": false,
      "stateMutability": "pure",
      "type": "function"
    },
    {
      "constant": false,
      "inputs": [
        {
          "internalType": "address",
          "name": "patient_hash",
          "type": "address"
        },
        {
          "internalType": "string",
          "name": "name",
          "type": "string"
        },
        {
          "internalType": "string",
          "name": "dob",
          "type": "string"
        },
        {
          "internalType": "string",
          "name": "prev_allergies",
          "type": "string"
        },
        {
          "internalType": "string",
          "name": "blood_group",
          "type": "string"
        },
        {
          "internalType": "uint256",
          "name": "balance",
          "type": "uint256"
        },
        {
          "internalType": "string",
          "name": "contact_number",
          "type": "string"
        },
        {
          "internalType": "string",
          "name": "emergency_contact_number",
          "type": "string"
        },
        {
          "internalType": "uint256",
          "name": "description_length",
          "type": "uint256"
        },
        {
          "internalType": "uint256",
          "name": "patient_flag",
          "type": "uint256"
        }
      ],
      "name": "add_patient",
      "outputs": [],
      "payable": false,
      "stateMutability": "nonpayable",
      "type": "function"
    },
    {
      "constant": false,
      "inputs": [
        {
          "internalType": "address",
          "name": "_doctor_hash",
          "type": "address"
        },
        {
          "internalType": "string",
          "name": "name",
          "type": "string"
        },
        {
          "internalType": "string",
          "name": "specialisation",
          "type": "string"
        },
        {
          "internalType": "string",
          "name": "phone_number",
          "type": "string"
        },
        {
          "internalType": "string",
          "name": "address_of_doctor",
          "type": "string"
        },
        {
          "internalType": "uint256",
          "name": "balance",
          "type": "uint256"
        },
        {
          "internalType": "uint256",
          "name": "flag",
          "type": "uint256"
        }
      ],
      "name": "add_doctor",
      "outputs": [],
      "payable": false,
      "stateMutability": "nonpayable",
      "type": "function"
    },
    {
      "constant": false,
      "inputs": [
        {
          "internalType": "address",
          "name": "hash",
          "type": "address"
        },
        {
          "internalType": "string",
          "name": "name",
          "type": "string"
        },
        {
          "internalType": "string",
          "name": "temp_address",
          "type": "string"
        },
        {
          "internalType": "string",
          "name": "phone_number",
          "type": "string"
        },
        {
          "internalType": "uint256",
          "name": "balance",
          "type": "uint256"
        },
        {
          "internalType": "uint256",
          "name": "flag",
          "type": "uint256"
        }
      ],
      "name": "add_pharmacy",
      "outputs": [],
      "payable": false,
      "stateMutability": "nonpayable",
      "type": "function"
    },
    {
      "constant": false,
      "inputs": [
        {
          "internalType": "address",
          "name": "hash",
          "type": "address"
        },
        {
          "internalType": "string",
          "name": "name",
          "type": "string"
        },
        {
          "internalType": "string",
          "name": "temp_address",
          "type": "string"
        },
        {
          "internalType": "string",
          "name": "phone_number",
          "type": "string"
        },
        {
          "internalType": "uint256",
          "name": "balance",
          "type": "uint256"
        },
        {
          "internalType": "uint256",
          "name": "flag",
          "type": "uint256"
        }
      ],
      "name": "add_path",
      "outputs": [],
      "payable": false,
      "stateMutability": "nonpayable",
      "type": "function"
    },
    {
      "constant": true,
      "inputs": [],
      "name": "role_define",
      "outputs": [
        {
          "internalType": "uint256",
          "name": "role_id",
          "type": "uint256"
        }
      ],
      "payable": false,
      "stateMutability": "view",
      "type": "function"
    },
    {
      "constant": true,
      "inputs": [
        {
          "internalType": "address",
          "name": "_patient_hash",
          "type": "address"
        }
      ],
      "name": "show_self_deatils",
      "outputs": [
        {
          "internalType": "address",
          "name": "patient_hash",
          "type": "address"
        },
        {
          "internalType": "string",
          "name": "patient_name",
          "type": "string"
        },
        {
          "internalType": "string",
          "name": "patient_dob",
          "type": "string"
        },
        {
          "internalType": "string",
          "name": "patient_previous_allergies",
          "type": "string"
        },
        {
          "internalType": "string",
          "name": "patient_blood_group",
          "type": "string"
        },
        {
          "internalType": "string",
          "name": "patient_contact_number",
          "type": "string"
        },
        {
          "internalType": "string",
          "name": "patient_emergency_contact_number",
          "type": "string"
        },
        {
          "internalType": "uint256",
          "name": "patient_balance",
          "type": "uint256"
        },
        {
          "internalType": "uint256",
          "name": "patient_prescription_length",
          "type": "uint256"
        }
      ],
      "payable": false,
      "stateMutability": "view",
      "type": "function"
    },
    {
      "constant": true,
      "inputs": [
        {
          "internalType": "address",
          "name": "_doctor_hash",
          "type": "address"
        }
      ],
      "name": "search_doctor",
      "outputs": [
        {
          "internalType": "address",
          "name": "doctor_hash",
          "type": "address"
        },
        {
          "internalType": "string",
          "name": "doctor_name",
          "type": "string"
        },
        {
          "internalType": "string",
          "name": "doctor_address",
          "type": "string"
        },
        {
          "internalType": "string",
          "name": "doctor_phone_number",
          "type": "string"
        },
        {
          "internalType": "string",
          "name": "doctor_speciality",
          "type": "string"
        }
      ],
      "payable": false,
      "stateMutability": "view",
      "type": "function"
    },
    {
      "constant": false,
      "inputs": [
        {
          "internalType": "address",
          "name": "reciever_hash",
          "type": "address"
        },
        {
          "internalType": "uint256",
          "name": "amount",
          "type": "uint256"
        }
      ],
      "name": "payment",
      "outputs": [
        {
          "internalType": "uint256",
          "name": "code",
          "type": "uint256"
        }
      ],
      "payable": false,
      "stateMutability": "nonpayable",
      "type": "function"
    },
    {
      "constant": true,
      "inputs": [],
      "name": "patient_last_transaction",
      "outputs": [
        {
          "internalType": "uint256",
          "name": "code",
          "type": "uint256"
        }
      ],
      "payable": false,
      "stateMutability": "view",
      "type": "function"
    },
    {
      "constant": true,
      "inputs": [
        {
          "internalType": "address",
          "name": "patient_hash",
          "type": "address"
        }
      ],
      "name": "get_total_number_of_prescriptions_by_pharma",
      "outputs": [
        {
          "internalType": "uint256",
          "name": "total_count",
          "type": "uint256"
        }
      ],
      "payable": false,
      "stateMutability": "view",
      "type": "function"
    },
    {
      "constant": true,
      "inputs": [
        {
          "internalType": "address",
          "name": "patient_hash",
          "type": "address"
        }
      ],
      "name": "get_total_number_of_prescriptions_by_pathalogy",
      "outputs": [
        {
          "internalType": "uint256",
          "name": "total_count",
          "type": "uint256"
        }
      ],
      "payable": false,
      "stateMutability": "view",
      "type": "function"
    },
    {
      "constant": false,
      "inputs": [
        {
          "internalType": "address",
          "name": "_doctor_hash",
          "type": "address"
        },
        {
          "internalType": "address",
          "name": "_patient_hash",
          "type": "address"
        },
        {
          "internalType": "string",
          "name": "_details_of_prescription",
          "type": "string"
        }
      ],
      "name": "give_prescription",
      "outputs": [],
      "payable": false,
      "stateMutability": "nonpayable",
      "type": "function"
    },
    {
      "constant": true,
      "inputs": [
        {
          "internalType": "address",
          "name": "_patient_hash",
          "type": "address"
        }
      ],
      "name": "view_patient_details",
      "outputs": [
        {
          "internalType": "address",
          "name": "patient_hash",
          "type": "address"
        },
        {
          "internalType": "string",
          "name": "patient_name",
          "type": "string"
        },
        {
          "internalType": "string",
          "name": "patient_dob",
          "type": "string"
        },
        {
          "internalType": "string",
          "name": "patient_previous_allergies",
          "type": "string"
        },
        {
          "internalType": "string",
          "name": "patient_blood_group",
          "type": "string"
        },
        {
          "internalType": "string",
          "name": "patient_contact_number",
          "type": "string"
        },
        {
          "internalType": "string",
          "name": "patient_emergency_contact_number",
          "type": "string"
        },
        {
          "internalType": "uint256",
          "name": "patient_prescription_length",
          "type": "uint256"
        }
      ],
      "payable": false,
      "stateMutability": "view",
      "type": "function"
    },
    {
      "constant": true,
      "inputs": [
        {
          "internalType": "address",
          "name": "_patient_hash",
          "type": "address"
        },
        {
          "internalType": "uint256",
          "name": "number",
          "type": "uint256"
        }
      ],
      "name": "view_prescription_by_doctor",
      "outputs": [
        {
          "internalType": "string",
          "name": "doctor_prescribed",
          "type": "string"
        },
        {
          "internalType": "string",
          "name": "patient_prescribed",
          "type": "string"
        },
        {
          "internalType": "string",
          "name": "description",
          "type": "string"
        },
        {
          "internalType": "uint256",
          "name": "time_prescribed",
          "type": "uint256"
        }
      ],
      "payable": false,
      "stateMutability": "view",
      "type": "function"
    },
    {
      "constant": true,
      "inputs": [
        {
          "internalType": "address",
          "name": "_patient_hash",
          "type": "address"
        },
        {
          "internalType": "uint256",
          "name": "number",
          "type": "uint256"
        }
      ],
      "name": "view_prescription_by_pharma",
      "outputs": [
        {
          "internalType": "string",
          "name": "doctor_prescribed",
          "type": "string"
        },
        {
          "internalType": "string",
          "name": "patient_prescribed",
          "type": "string"
        },
        {
          "internalType": "string",
          "name": "description",
          "type": "string"
        },
        {
          "internalType": "uint256",
          "name": "time_prescribed",
          "type": "uint256"
        }
      ],
      "payable": false,
      "stateMutability": "view",
      "type": "function"
    },
    {
      "constant": true,
      "inputs": [
        {
          "internalType": "address",
          "name": "_patient_hash",
          "type": "address"
        },
        {
          "internalType": "uint256",
          "name": "number",
          "type": "uint256"
        }
      ],
      "name": "view_prescription_by_pathlab",
      "outputs": [
        {
          "internalType": "string",
          "name": "doctor_prescribed",
          "type": "string"
        },
        {
          "internalType": "string",
          "name": "patient_prescribed",
          "type": "string"
        },
        {
          "internalType": "string",
          "name": "description",
          "type": "string"
        },
        {
          "internalType": "uint256",
          "name": "time_prescribed",
          "type": "uint256"
        }
      ],
      "payable": false,
      "stateMutability": "view",
      "type": "function"
    }
  ],
  "bytecode": "0x608060405234801561001057600080fd5b5033600460006101000a81548173ffffffffffffffffffffffffffffffffffffffff021916908373ffffffffffffffffffffffffffffffffffffffff16021790555061346c806100616000396000f3fe608060405234801561001057600080fd5b50600436106101165760003560e01c8063a59bca18116100a2578063d662a72b11610071578063d662a72b1461033f578063ef083a9f1461035d578063ef0f80a314610390578063f818835a146103c3578063f87ced11146103df57610116565b8063a59bca181461028c578063b8cbe677146102c0578063ca3d89f1146102dc578063cfb519281461030f57610116565b8063633b8cbd116100e9578063633b8cbd146101bc57806367a09c23146101d857806379909d49146102085780639201de55146102245780639a3529451461025457610116565b806319fd93821461011b57806338afde8214610139578063420138be146101695780635f41468b14610185575b600080fd5b61012361040f565b6040516101309190613275565b60405180910390f35b610153600480360361014e9190810190612a91565b6105cd565b6040516101609190613275565b60405180910390f35b610183600480360361017e9190810190612d8a565b6106bf565b005b61019f600480360361019a9190810190612a91565b61091d565b6040516101b398979695949392919061307f565b60405180910390f35b6101d660048036036101d19190810190612d8a565b610a4e565b005b6101f260048036036101ed9190810190612e5b565b610cac565b6040516101ff9190613275565b60405180910390f35b610222600480360361021d9190810190612b21565b6111a6565b005b61023e60048036036102399190810190612e97565b611579565b60405161024b91906131f9565b60405180910390f35b61026e60048036036102699190810190612a91565b6116d6565b60405161028399989796959493929190613127565b60405180910390f35b6102a660048036036102a19190810190612a91565b611811565b6040516102b7959493929190613010565b60405180910390f35b6102da60048036036102d59190810190612c8c565b61199a565b005b6102f660048036036102f19190810190612e5b565b611b2b565b604051610306949392919061321b565b60405180910390f35b61032960048036036103249190810190612ec0565b611e3e565b60405161033691906131de565b60405180910390f35b610347611e69565b6040516103549190613275565b60405180910390f35b61037760048036036103729190810190612e5b565b611f00565b604051610387949392919061321b565b60405180910390f35b6103aa60048036036103a59190810190612e5b565b612214565b6040516103ba949392919061321b565b60405180910390f35b6103dd60048036036103d89190810190612aba565b612528565b005b6103f960048036036103f49190810190612a91565b6127da565b6040516104069190613275565b60405180910390f35b600080905060016000803373ffffffffffffffffffffffffffffffffffffffff1673ffffffffffffffffffffffffffffffffffffffff168152602001908152602001600020600a0154141561046757600190506105ca565b60018060003373ffffffffffffffffffffffffffffffffffffffff1673ffffffffffffffffffffffffffffffffffffffff1681526020019081526020016000206006015414156104ba57600290506105c9565b6001600260003373ffffffffffffffffffffffffffffffffffffffff1673ffffffffffffffffffffffffffffffffffffffff16815260200190815260200160002060050154141561050e57600390506105c8565b6001600360003373ffffffffffffffffffffffffffffffffffffffff1673ffffffffffffffffffffffffffffffffffffffff16815260200190815260200160002060050154141561056257600490506105c7565b600460009054906101000a900473ffffffffffffffffffffffffffffffffffffffff1673ffffffffffffffffffffffffffffffffffffffff163373ffffffffffffffffffffffffffffffffffffffff1614156105c157600590506105c6565b600090505b5b5b5b5b90565b60006001600360003373ffffffffffffffffffffffffffffffffffffffff1673ffffffffffffffffffffffffffffffffffffffff168152602001908152602001600020600501541461061e57600080fd5b6000905060016000808473ffffffffffffffffffffffffffffffffffffffff1673ffffffffffffffffffffffffffffffffffffffff168152602001908152602001600020600a015414156106b5576000808373ffffffffffffffffffffffffffffffffffffffff1673ffffffffffffffffffffffffffffffffffffffff1681526020019081526020016000206009015490506106ba565b600090505b919050565b600460009054906101000a900473ffffffffffffffffffffffffffffffffffffffff1673ffffffffffffffffffffffffffffffffffffffff163373ffffffffffffffffffffffffffffffffffffffff161461071957600080fd5b85600360008873ffffffffffffffffffffffffffffffffffffffff1673ffffffffffffffffffffffffffffffffffffffff16815260200190815260200160002060000160006101000a81548173ffffffffffffffffffffffffffffffffffffffff021916908373ffffffffffffffffffffffffffffffffffffffff1602179055506107a385611e3e565b600360008873ffffffffffffffffffffffffffffffffffffffff1673ffffffffffffffffffffffffffffffffffffffff168152602001908152602001600020600101819055506107f284611e3e565b600360008873ffffffffffffffffffffffffffffffffffffffff1673ffffffffffffffffffffffffffffffffffffffff1681526020019081526020016000206002018190555061084183611e3e565b600360008873ffffffffffffffffffffffffffffffffffffffff1673ffffffffffffffffffffffffffffffffffffffff1681526020019081526020016000206003018190555081600360008873ffffffffffffffffffffffffffffffffffffffff1673ffffffffffffffffffffffffffffffffffffffff1681526020019081526020016000206004018190555080600360008873ffffffffffffffffffffffffffffffffffffffff1673ffffffffffffffffffffffffffffffffffffffff16815260200190815260200160002060050181905550505050505050565b6000606080606080606080600060018060003373ffffffffffffffffffffffffffffffffffffffff1673ffffffffffffffffffffffffffffffffffffffff168152602001908152602001600020600601541461097857600080fd5b60008060008b73ffffffffffffffffffffffffffffffffffffffff1673ffffffffffffffffffffffffffffffffffffffff16815260200190815260200160002090508060000160009054906101000a900473ffffffffffffffffffffffffffffffffffffffff1698506109ee8160010154611579565b97506109fd8160020154611579565b9650610a0c8160030154611579565b9550610a1b8160040154611579565b9450610a2a8160070154611579565b9350610a398160080154611579565b92508060090154915050919395975091939597565b600460009054906101000a900473ffffffffffffffffffffffffffffffffffffffff1673ffffffffffffffffffffffffffffffffffffffff163373ffffffffffffffffffffffffffffffffffffffff1614610aa857600080fd5b85600260008873ffffffffffffffffffffffffffffffffffffffff1673ffffffffffffffffffffffffffffffffffffffff16815260200190815260200160002060000160006101000a81548173ffffffffffffffffffffffffffffffffffffffff021916908373ffffffffffffffffffffffffffffffffffffffff160217905550610b3285611e3e565b600260008873ffffffffffffffffffffffffffffffffffffffff1673ffffffffffffffffffffffffffffffffffffffff16815260200190815260200160002060010181905550610b8184611e3e565b600260008873ffffffffffffffffffffffffffffffffffffffff1673ffffffffffffffffffffffffffffffffffffffff16815260200190815260200160002060020181905550610bd083611e3e565b600260008873ffffffffffffffffffffffffffffffffffffffff1673ffffffffffffffffffffffffffffffffffffffff1681526020019081526020016000206003018190555081600260008873ffffffffffffffffffffffffffffffffffffffff1673ffffffffffffffffffffffffffffffffffffffff1681526020019081526020016000206004018190555080600260008873ffffffffffffffffffffffffffffffffffffffff1673ffffffffffffffffffffffffffffffffffffffff16815260200190815260200160002060050181905550505050505050565b600060016000803373ffffffffffffffffffffffffffffffffffffffff1673ffffffffffffffffffffffffffffffffffffffff168152602001908152602001600020600a015414610cfc57600080fd5b60009050600033905060008060008373ffffffffffffffffffffffffffffffffffffffff1673ffffffffffffffffffffffffffffffffffffffff1681526020019081526020016000206005015490508381106111525760018060008773ffffffffffffffffffffffffffffffffffffffff1673ffffffffffffffffffffffffffffffffffffffff168152602001908152602001600020600601541415610e8b576001925060016000808473ffffffffffffffffffffffffffffffffffffffff1673ffffffffffffffffffffffffffffffffffffffff1681526020019081526020016000206006018190555083600160008773ffffffffffffffffffffffffffffffffffffffff1673ffffffffffffffffffffffffffffffffffffffff16815260200190815260200160002060050160008282540192505081905550836000808473ffffffffffffffffffffffffffffffffffffffff1673ffffffffffffffffffffffffffffffffffffffff1681526020019081526020016000206005016000828254039250508190555061114d565b6001600260008773ffffffffffffffffffffffffffffffffffffffff1673ffffffffffffffffffffffffffffffffffffffff168152602001908152602001600020600501541415610fc5576001925060016000808473ffffffffffffffffffffffffffffffffffffffff1673ffffffffffffffffffffffffffffffffffffffff1681526020019081526020016000206006018190555083600260008773ffffffffffffffffffffffffffffffffffffffff1673ffffffffffffffffffffffffffffffffffffffff16815260200190815260200160002060040160008282540192505081905550836000808473ffffffffffffffffffffffffffffffffffffffff1673ffffffffffffffffffffffffffffffffffffffff1681526020019081526020016000206005016000828254039250508190555061114c565b6001600360008773ffffffffffffffffffffffffffffffffffffffff1673ffffffffffffffffffffffffffffffffffffffff1681526020019081526020016000206005015414156110ff576001925060016000808473ffffffffffffffffffffffffffffffffffffffff1673ffffffffffffffffffffffffffffffffffffffff1681526020019081526020016000206006018190555083600360008773ffffffffffffffffffffffffffffffffffffffff1673ffffffffffffffffffffffffffffffffffffffff16815260200190815260200160002060040160008282540192505081905550836000808473ffffffffffffffffffffffffffffffffffffffff1673ffffffffffffffffffffffffffffffffffffffff1681526020019081526020016000206005016000828254039250508190555061114b565b6000925060008060008473ffffffffffffffffffffffffffffffffffffffff1673ffffffffffffffffffffffffffffffffffffffff168152602001908152602001600020600601819055505b5b5b61119e565b6002925060026000808473ffffffffffffffffffffffffffffffffffffffff1673ffffffffffffffffffffffffffffffffffffffff168152602001908152602001600020600601819055505b505092915050565b600460009054906101000a900473ffffffffffffffffffffffffffffffffffffffff1673ffffffffffffffffffffffffffffffffffffffff163373ffffffffffffffffffffffffffffffffffffffff161461120057600080fd5b896000808c73ffffffffffffffffffffffffffffffffffffffff1673ffffffffffffffffffffffffffffffffffffffff16815260200190815260200160002060000160006101000a81548173ffffffffffffffffffffffffffffffffffffffff021916908373ffffffffffffffffffffffffffffffffffffffff16021790555061128989611e3e565b6000808c73ffffffffffffffffffffffffffffffffffffffff1673ffffffffffffffffffffffffffffffffffffffff168152602001908152602001600020600101819055506112d788611e3e565b6000808c73ffffffffffffffffffffffffffffffffffffffff1673ffffffffffffffffffffffffffffffffffffffff1681526020019081526020016000206002018190555061132587611e3e565b6000808c73ffffffffffffffffffffffffffffffffffffffff1673ffffffffffffffffffffffffffffffffffffffff1681526020019081526020016000206003018190555061137386611e3e565b6000808c73ffffffffffffffffffffffffffffffffffffffff1673ffffffffffffffffffffffffffffffffffffffff16815260200190815260200160002060040181905550846000808c73ffffffffffffffffffffffffffffffffffffffff1673ffffffffffffffffffffffffffffffffffffffff1681526020019081526020016000206005018190555060008060008c73ffffffffffffffffffffffffffffffffffffffff1673ffffffffffffffffffffffffffffffffffffffff1681526020019081526020016000206006018190555061144e84611e3e565b6000808c73ffffffffffffffffffffffffffffffffffffffff1673ffffffffffffffffffffffffffffffffffffffff1681526020019081526020016000206007018190555061149c83611e3e565b6000808c73ffffffffffffffffffffffffffffffffffffffff1673ffffffffffffffffffffffffffffffffffffffff16815260200190815260200160002060080181905550816000808c73ffffffffffffffffffffffffffffffffffffffff1673ffffffffffffffffffffffffffffffffffffffff16815260200190815260200160002060090181905550806000808c73ffffffffffffffffffffffffffffffffffffffff1673ffffffffffffffffffffffffffffffffffffffff168152602001908152602001600020600a018190555050505050505050505050565b606060008090505b60208160ff161080156115cc5750600060f81b838260ff16602081106115a357fe5b1a60f81b7effffffffffffffffffffffffffffffffffffffffffffffffffffffffffffff191614155b156115de578080600101915050611581565b60608160ff166040519080825280601f01601f1916602001820160405280156116165781602001600182028038833980820191505090505b509050600091505b60208260ff161080156116695750600060f81b848360ff166020811061164057fe5b1a60f81b7effffffffffffffffffffffffffffffffffffffffffffffffffffffffffffff191614155b156116cc57838260ff166020811061167d57fe5b1a60f81b818360ff168151811061169057fe5b60200101907effffffffffffffffffffffffffffffffffffffffffffffffffffffffffffff1916908160001a905350818060010192505061161e565b8092505050919050565b600060608060608060608060008060016000803373ffffffffffffffffffffffffffffffffffffffff1673ffffffffffffffffffffffffffffffffffffffff168152602001908152602001600020600a01541461173257600080fd5b60008060008c73ffffffffffffffffffffffffffffffffffffffff1673ffffffffffffffffffffffffffffffffffffffff16815260200190815260200160002090508060000160009054906101000a900473ffffffffffffffffffffffffffffffffffffffff1699506117a88160010154611579565b98506117b78160020154611579565b97506117c68160030154611579565b96506117d58160040154611579565b95506117e48160070154611579565b94506117f38160080154611579565b93508060050154925080600901549150509193959799909294969850565b600060608060608060016000803373ffffffffffffffffffffffffffffffffffffffff1673ffffffffffffffffffffffffffffffffffffffff168152602001908152602001600020600a01541461186757600080fd5b61186f6128cc565b600160008873ffffffffffffffffffffffffffffffffffffffff1673ffffffffffffffffffffffffffffffffffffffff1681526020019081526020016000206040518060e00160405290816000820160009054906101000a900473ffffffffffffffffffffffffffffffffffffffff1673ffffffffffffffffffffffffffffffffffffffff1673ffffffffffffffffffffffffffffffffffffffff16815260200160018201548152602001600282015481526020016003820154815260200160048201548152602001600582015481526020016006820154815250509050806000015195506119618160200151611579565b94506119708160800151611579565b935061197f8160600151611579565b925061198e8160400151611579565b91505091939590929450565b600460009054906101000a900473ffffffffffffffffffffffffffffffffffffffff1673ffffffffffffffffffffffffffffffffffffffff163373ffffffffffffffffffffffffffffffffffffffff16146119f457600080fd5b6040518060e001604052808873ffffffffffffffffffffffffffffffffffffffff168152602001611a2488611e3e565b8152602001611a3287611e3e565b8152602001611a4086611e3e565b8152602001611a4e85611e3e565b815260200183815260200182815250600160008973ffffffffffffffffffffffffffffffffffffffff1673ffffffffffffffffffffffffffffffffffffffff16815260200190815260200160002060008201518160000160006101000a81548173ffffffffffffffffffffffffffffffffffffffff021916908373ffffffffffffffffffffffffffffffffffffffff1602179055506020820151816001015560408201518160020155606082015181600301556080820151816004015560a0820151816005015560c0820151816006015590505050505050505050565b6060806060600060018060003373ffffffffffffffffffffffffffffffffffffffff1673ffffffffffffffffffffffffffffffffffffffff1681526020019081526020016000206006015414611b8057600080fd5b60008060008873ffffffffffffffffffffffffffffffffffffffff1673ffffffffffffffffffffffffffffffffffffffff1681526020019081526020016000206009015490506000868210611c2b576000808973ffffffffffffffffffffffffffffffffffffffff1673ffffffffffffffffffffffffffffffffffffffff168152602001908152602001600020600b0187830381548110611c1d57fe5b906000526020600020015490505b6000808973ffffffffffffffffffffffffffffffffffffffff1673ffffffffffffffffffffffffffffffffffffffff168152602001908152602001600020600c0160008281526020019081526020016000206003018054600181600116156101000203166002900480601f016020809104026020016040519081016040528092919081815260200182805460018160011615610100020316600290048015611d145780601f10611ce957610100808354040283529160200191611d14565b820191906000526020600020905b815481529060010190602001808311611cf757829003601f168201915b50505050509350611d796000808a73ffffffffffffffffffffffffffffffffffffffff1673ffffffffffffffffffffffffffffffffffffffff168152602001908152602001600020600c01600083815260200190815260200160002060000154611579565b9550611dd96000808a73ffffffffffffffffffffffffffffffffffffffff1673ffffffffffffffffffffffffffffffffffffffff168152602001908152602001600020600c01600083815260200190815260200160002060010154611579565b94506000808973ffffffffffffffffffffffffffffffffffffffff1673ffffffffffffffffffffffffffffffffffffffff168152602001908152602001600020600c016000828152602001908152602001600020600201549250505092959194509250565b60006060829050600081511415611e5b576000801b915050611e64565b60208301519150505b919050565b600060016000803373ffffffffffffffffffffffffffffffffffffffff1673ffffffffffffffffffffffffffffffffffffffff168152602001908152602001600020600a015414611eb957600080fd5b6000803373ffffffffffffffffffffffffffffffffffffffff1673ffffffffffffffffffffffffffffffffffffffff16815260200190815260200160002060060154905090565b606080606060006001600260003373ffffffffffffffffffffffffffffffffffffffff1673ffffffffffffffffffffffffffffffffffffffff1681526020019081526020016000206005015414611f5657600080fd5b60008060008873ffffffffffffffffffffffffffffffffffffffff1673ffffffffffffffffffffffffffffffffffffffff1681526020019081526020016000206009015490506000868210612001576000808973ffffffffffffffffffffffffffffffffffffffff1673ffffffffffffffffffffffffffffffffffffffff168152602001908152602001600020600b0187830381548110611ff357fe5b906000526020600020015490505b6000808973ffffffffffffffffffffffffffffffffffffffff1673ffffffffffffffffffffffffffffffffffffffff168152602001908152602001600020600c0160008281526020019081526020016000206003018054600181600116156101000203166002900480601f0160208091040260200160405190810160405280929190818152602001828054600181600116156101000203166002900480156120ea5780601f106120bf576101008083540402835291602001916120ea565b820191906000526020600020905b8154815290600101906020018083116120cd57829003601f168201915b5050505050935061214f6000808a73ffffffffffffffffffffffffffffffffffffffff1673ffffffffffffffffffffffffffffffffffffffff168152602001908152602001600020600c01600083815260200190815260200160002060000154611579565b95506121af6000808a73ffffffffffffffffffffffffffffffffffffffff1673ffffffffffffffffffffffffffffffffffffffff168152602001908152602001600020600c01600083815260200190815260200160002060010154611579565b94506000808973ffffffffffffffffffffffffffffffffffffffff1673ffffffffffffffffffffffffffffffffffffffff168152602001908152602001600020600c016000828152602001908152602001600020600201549250505092959194509250565b606080606060006001600360003373ffffffffffffffffffffffffffffffffffffffff1673ffffffffffffffffffffffffffffffffffffffff168152602001908152602001600020600501541461226a57600080fd5b60008060008873ffffffffffffffffffffffffffffffffffffffff1673ffffffffffffffffffffffffffffffffffffffff1681526020019081526020016000206009015490506000868210612315576000808973ffffffffffffffffffffffffffffffffffffffff1673ffffffffffffffffffffffffffffffffffffffff168152602001908152602001600020600b018783038154811061230757fe5b906000526020600020015490505b6000808973ffffffffffffffffffffffffffffffffffffffff1673ffffffffffffffffffffffffffffffffffffffff168152602001908152602001600020600c0160008281526020019081526020016000206003018054600181600116156101000203166002900480601f0160208091040260200160405190810160405280929190818152602001828054600181600116156101000203166002900480156123fe5780601f106123d3576101008083540402835291602001916123fe565b820191906000526020600020905b8154815290600101906020018083116123e157829003601f168201915b505050505093506124636000808a73ffffffffffffffffffffffffffffffffffffffff1673ffffffffffffffffffffffffffffffffffffffff168152602001908152602001600020600c01600083815260200190815260200160002060000154611579565b95506124c36000808a73ffffffffffffffffffffffffffffffffffffffff1673ffffffffffffffffffffffffffffffffffffffff168152602001908152602001600020600c01600083815260200190815260200160002060010154611579565b94506000808973ffffffffffffffffffffffffffffffffffffffff1673ffffffffffffffffffffffffffffffffffffffff168152602001908152602001600020600c016000828152602001908152602001600020600201549250505092959194509250565b60018060003373ffffffffffffffffffffffffffffffffffffffff1673ffffffffffffffffffffffffffffffffffffffff168152602001908152602001600020600601541461257657600080fd5b60606125c26000808573ffffffffffffffffffffffffffffffffffffffff1673ffffffffffffffffffffffffffffffffffffffff16815260200190815260200160002060010154611579565b90506060612611600160008773ffffffffffffffffffffffffffffffffffffffff1673ffffffffffffffffffffffffffffffffffffffff16815260200190815260200160002060010154611579565b9050600042905060016000808773ffffffffffffffffffffffffffffffffffffffff1673ffffffffffffffffffffffffffffffffffffffff168152602001908152602001600020600901600082825401925050819055506000868683876040516020016126819493929190612fc6565b6040516020818303038152906040528051906020012090506000808773ffffffffffffffffffffffffffffffffffffffff1673ffffffffffffffffffffffffffffffffffffffff168152602001908152602001600020600b0181908060018154018082558091505090600182039060005260206000200160009091929091909150555061270c61292b565b604051806080016040528061272086611e3e565b815260200161272e87611e3e565b8152602001848152602001878152509050806000808973ffffffffffffffffffffffffffffffffffffffff1673ffffffffffffffffffffffffffffffffffffffff168152602001908152602001600020600c01600084815260200190815260200160002060008201518160000155602082015181600101556040820151816002015560608201518160030190805190602001906127cc929190612959565b509050505050505050505050565b60006001600260003373ffffffffffffffffffffffffffffffffffffffff1673ffffffffffffffffffffffffffffffffffffffff168152602001908152602001600020600501541461282b57600080fd5b6000905060016000808473ffffffffffffffffffffffffffffffffffffffff1673ffffffffffffffffffffffffffffffffffffffff168152602001908152602001600020600a015414156128c2576000808373ffffffffffffffffffffffffffffffffffffffff1673ffffffffffffffffffffffffffffffffffffffff1681526020019081526020016000206009015490506128c7565b600090505b919050565b6040518060e00160405280600073ffffffffffffffffffffffffffffffffffffffff1681526020016000801916815260200160008019168152602001600080191681526020016000801916815260200160008152602001600081525090565b6040518060800160405280600080191681526020016000801916815260200160008152602001606081525090565b828054600181600116156101000203166002900490600052602060002090601f016020900481019282601f1061299a57805160ff19168380011785556129c8565b828001600101855582156129c8579182015b828111156129c75782518255916020019190600101906129ac565b5b5090506129d591906129d9565b5090565b6129fb91905b808211156129f75760008160009055506001016129df565b5090565b90565b600081359050612a0d816133e4565b92915050565b600081359050612a22816133fb565b92915050565b600082601f830112612a3957600080fd5b8135612a4c612a47826132bd565b613290565b91508082526020830160208301858383011115612a6857600080fd5b612a73838284613356565b50505092915050565b600081359050612a8b81613412565b92915050565b600060208284031215612aa357600080fd5b6000612ab1848285016129fe565b91505092915050565b600080600060608486031215612acf57600080fd5b6000612add868287016129fe565b9350506020612aee868287016129fe565b925050604084013567ffffffffffffffff811115612b0b57600080fd5b612b1786828701612a28565b9150509250925092565b6000806000806000806000806000806101408b8d031215612b4157600080fd5b6000612b4f8d828e016129fe565b9a505060208b013567ffffffffffffffff811115612b6c57600080fd5b612b788d828e01612a28565b99505060408b013567ffffffffffffffff811115612b9557600080fd5b612ba18d828e01612a28565b98505060608b013567ffffffffffffffff811115612bbe57600080fd5b612bca8d828e01612a28565b97505060808b013567ffffffffffffffff811115612be757600080fd5b612bf38d828e01612a28565b96505060a0612c048d828e01612a7c565b95505060c08b013567ffffffffffffffff811115612c2157600080fd5b612c2d8d828e01612a28565b94505060e08b013567ffffffffffffffff811115612c4a57600080fd5b612c568d828e01612a28565b935050610100612c688d828e01612a7c565b925050610120612c7a8d828e01612a7c565b9150509295989b9194979a5092959850565b600080600080600080600060e0888a031215612ca757600080fd5b6000612cb58a828b016129fe565b975050602088013567ffffffffffffffff811115612cd257600080fd5b612cde8a828b01612a28565b965050604088013567ffffffffffffffff811115612cfb57600080fd5b612d078a828b01612a28565b955050606088013567ffffffffffffffff811115612d2457600080fd5b612d308a828b01612a28565b945050608088013567ffffffffffffffff811115612d4d57600080fd5b612d598a828b01612a28565b93505060a0612d6a8a828b01612a7c565b92505060c0612d7b8a828b01612a7c565b91505092959891949750929550565b60008060008060008060c08789031215612da357600080fd5b6000612db189828a016129fe565b965050602087013567ffffffffffffffff811115612dce57600080fd5b612dda89828a01612a28565b955050604087013567ffffffffffffffff811115612df757600080fd5b612e0389828a01612a28565b945050606087013567ffffffffffffffff811115612e2057600080fd5b612e2c89828a01612a28565b9350506080612e3d89828a01612a7c565b92505060a0612e4e89828a01612a7c565b9150509295509295509295565b60008060408385031215612e6e57600080fd5b6000612e7c858286016129fe565b9250506020612e8d85828601612a7c565b9150509250929050565b600060208284031215612ea957600080fd5b6000612eb784828501612a13565b91505092915050565b600060208284031215612ed257600080fd5b600082013567ffffffffffffffff811115612eec57600080fd5b612ef884828501612a28565b91505092915050565b612f0a81613310565b82525050565b612f21612f1c82613310565b613398565b82525050565b612f3081613322565b82525050565b6000612f41826132e9565b612f4b81856132f4565b9350612f5b818560208601613365565b612f64816133c6565b840191505092915050565b6000612f7a826132e9565b612f848185613305565b9350612f94818560208601613365565b80840191505092915050565b612fa98161334c565b82525050565b612fc0612fbb8261334c565b6133bc565b82525050565b6000612fd28287612f10565b601482019150612fe28286612f10565b601482019150612ff28285612faf565b6020820191506130028284612f6f565b915081905095945050505050565b600060a0820190506130256000830188612f01565b81810360208301526130378187612f36565b9050818103604083015261304b8186612f36565b9050818103606083015261305f8185612f36565b905081810360808301526130738184612f36565b90509695505050505050565b600061010082019050613095600083018b612f01565b81810360208301526130a7818a612f36565b905081810360408301526130bb8189612f36565b905081810360608301526130cf8188612f36565b905081810360808301526130e38187612f36565b905081810360a08301526130f78186612f36565b905081810360c083015261310b8185612f36565b905061311a60e0830184612fa0565b9998505050505050505050565b60006101208201905061313d600083018c612f01565b818103602083015261314f818b612f36565b90508181036040830152613163818a612f36565b905081810360608301526131778189612f36565b9050818103608083015261318b8188612f36565b905081810360a083015261319f8187612f36565b905081810360c08301526131b38186612f36565b90506131c260e0830185612fa0565b6131d0610100830184612fa0565b9a9950505050505050505050565b60006020820190506131f36000830184612f27565b92915050565b600060208201905081810360008301526132138184612f36565b905092915050565b600060808201905081810360008301526132358187612f36565b905081810360208301526132498186612f36565b9050818103604083015261325d8185612f36565b905061326c6060830184612fa0565b95945050505050565b600060208201905061328a6000830184612fa0565b92915050565b6000604051905081810181811067ffffffffffffffff821117156132b357600080fd5b8060405250919050565b600067ffffffffffffffff8211156132d457600080fd5b601f19601f8301169050602081019050919050565b600081519050919050565b600082825260208201905092915050565b600081905092915050565b600061331b8261332c565b9050919050565b6000819050919050565b600073ffffffffffffffffffffffffffffffffffffffff82169050919050565b6000819050919050565b82818337600083830152505050565b60005b83811015613383578082015181840152602081019050613368565b83811115613392576000848401525b50505050565b60006133a3826133aa565b9050919050565b60006133b5826133d7565b9050919050565b6000819050919050565b6000601f19601f8301169050919050565b60008160601b9050919050565b6133ed81613310565b81146133f857600080fd5b50565b61340481613322565b811461340f57600080fd5b50565b61341b8161334c565b811461342657600080fd5b5056fea365627a7a723158209c189294264a59d668f6b4b0dcaf98d7427b49cf9824dc11baf6ecd4be91659c6c6578706572696d656e74616cf564736f6c63430005100040",
  "source": "pragma solidity 0.5.16;\r\npragma experimental ABIEncoderV2;\r\n\r\ncontract hack{\r\n    \r\n    struct prescription{\r\n        \r\n        bytes32 _doctor_name;\r\n        bytes32 _patient_name;\r\n        uint256 _timestamp;\r\n        \r\n        string  _description;\r\n    }\r\n    \r\n    struct patient{\r\n        address _patient_hash;\r\n        bytes32 _patient_name;\r\n        bytes32 _patient_dob;\r\n        bytes32 _patient_previous_allergies;\r\n        bytes32 _patient_blood_group;\r\n        uint _patient_balance;\r\n        uint last_transaction;\r\n        bytes32 _patient_contact_number;\r\n        bytes32 _patient_emergency_contact_number;\r\n        uint _patient_prescription_length;\r\n        uint _patient_flag;\r\n        bytes32 [] _prescription_list;\r\n        mapping(bytes32=>prescription) _patient_prescription_record;\r\n    }\r\n    \r\n    struct doctor{\r\n        address _doctor_hash;\r\n        bytes32 _doctor_name;\r\n        bytes32 _doctor_speciality;\r\n        bytes32 _doctor_phone_number;\r\n        bytes32 _doctor_address;\r\n        uint _doctor_balance;\r\n        uint _doctor_flag;\r\n    }\r\n    \r\n    struct pharmacy{\r\n        address _pharmacy_hash;\r\n        bytes32 _pharmacy_name;\r\n        bytes32 _pharmacy_address;\r\n        bytes32 _pharmacy_phone_number;\r\n        uint _pharmacy_balance;\r\n        uint _pharmacy_flag;\r\n    }\r\n    \r\n    struct pathology{\r\n        address _path_hash;\r\n        bytes32 _path_name;\r\n        bytes32 _path_address;\r\n        bytes32 _path_phone_number;\r\n        uint _path_balance;\r\n        uint _path_flag;\r\n    }\r\n    \r\n    mapping (address=>patient)  patient_records  ;\r\n    mapping(address=>doctor)doctor_record;\r\n    mapping(address=>pharmacy)pharmacy_record;\r\n    mapping(address=>pathology)pathlab_record;\r\n    \r\n    address owner;\r\n    \r\n    constructor () public {\r\n        owner=msg.sender;\r\n    }\r\n    \r\n    modifier only_owner(){\r\n        require(msg.sender==owner);\r\n        _;\r\n    }\r\n    \r\n    modifier only_self(){\r\n        require(patient_records[msg.sender]._patient_flag ==1);\r\n        _;\r\n    }\r\n    \r\n    modifier only_doctor(){\r\n        require(doctor_record[msg.sender]._doctor_flag ==1);\r\n        _;\r\n    }\r\n    \r\n    modifier only_pharmacy(){\r\n        require(pharmacy_record[msg.sender]._pharmacy_flag==1);\r\n        _;\r\n    }\r\n    \r\n    modifier only_pathology(){\r\n        require(pathlab_record[msg.sender]._path_flag==1);\r\n        _;\r\n    }\r\n    \r\n    //==================================function to convert datatypes==================================\r\n    \r\n    function bytes32ToString(bytes32 _bytes32) public pure returns (string memory) {\r\n        uint8 i = 0;\r\n        while(i < 32 && _bytes32[i] != 0) {\r\n            i++;\r\n        }\r\n        bytes memory bytesArray = new bytes(i);\r\n        for (i = 0; i < 32 && _bytes32[i] != 0; i++) {\r\n            bytesArray[i] = _bytes32[i];\r\n        }\r\n        return string(bytesArray);\r\n    }\r\n    \r\n    function stringToBytes32(string memory source) public pure returns (bytes32 result) {\r\n    bytes memory tempEmptyStringTest = bytes(source);\r\n    if (tempEmptyStringTest.length == 0) {\r\n        return 0x0;\r\n    }\r\n\r\n    assembly {\r\n        result := mload(add(source, 32))\r\n    }\r\n}\r\n    \r\n    //===================================================================================================\r\n    \r\n    function add_patient(\r\n    address patient_hash,\r\n    string memory  name,\r\n    string memory  dob,\r\n    string memory  prev_allergies,\r\n    string memory  blood_group,\r\n    uint balance,\r\n    string memory  contact_number,\r\n    string memory  emergency_contact_number,\r\n    uint description_length,\r\n    uint patient_flag\r\n    \r\n    ) public only_owner{\r\n        patient_records[patient_hash]._patient_hash=patient_hash;\r\n        patient_records[patient_hash]._patient_name=stringToBytes32(name);\r\n        patient_records[patient_hash]._patient_dob=stringToBytes32(dob);\r\n        patient_records[patient_hash]._patient_previous_allergies=stringToBytes32(prev_allergies);\r\n        patient_records[patient_hash]._patient_blood_group=stringToBytes32(blood_group);\r\n        patient_records[patient_hash]._patient_balance=balance;\r\n        patient_records[patient_hash].last_transaction=0;\r\n        patient_records[patient_hash]._patient_contact_number=stringToBytes32(contact_number);\r\n        patient_records[patient_hash]._patient_emergency_contact_number=stringToBytes32(emergency_contact_number);\r\n        patient_records[patient_hash]._patient_prescription_length=description_length;\r\n        patient_records[patient_hash]._patient_flag=patient_flag;\r\n\r\n        \r\n    }\r\n    \r\n    function add_doctor(\r\n        address _doctor_hash,\r\n        string memory  name,\r\n        string memory  specialisation,\r\n        string memory phone_number,\r\n        string memory  address_of_doctor,\r\n        uint balance,\r\n        uint flag) public only_owner{\r\n        \r\n        doctor_record[_doctor_hash]=\r\n        doctor(\r\n            _doctor_hash,\r\n            stringToBytes32(name),\r\n            stringToBytes32(specialisation),\r\n            stringToBytes32(phone_number),\r\n            stringToBytes32(address_of_doctor),\r\n            balance,\r\n            flag);\r\n        \r\n        \r\n    }\r\n    \r\n    function add_pharmacy(\r\n        address hash,\r\n        string memory name,\r\n        string memory temp_address,\r\n        string memory phone_number,\r\n        uint balance,\r\n        uint flag) public only_owner{\r\n        \r\n        pharmacy_record[hash]._pharmacy_hash=hash;\r\n        pharmacy_record[hash]._pharmacy_name=stringToBytes32(name);\r\n        pharmacy_record[hash]._pharmacy_address=stringToBytes32(temp_address);\r\n        pharmacy_record[hash]._pharmacy_phone_number=stringToBytes32(phone_number);\r\n        pharmacy_record[hash]._pharmacy_balance=balance;\r\n        pharmacy_record[hash]._pharmacy_flag=flag;\r\n            \r\n        }\r\n        \r\n        \r\n    function add_path(\r\n        address hash,\r\n        string memory name,\r\n        string memory temp_address,\r\n        string memory phone_number,\r\n        uint balance,\r\n        uint flag) public only_owner{\r\n        \r\n        pathlab_record[hash]._path_hash=hash;\r\n        pathlab_record[hash]._path_name=stringToBytes32(name);\r\n        pathlab_record[hash]._path_address=stringToBytes32(temp_address);\r\n        pathlab_record[hash]._path_phone_number=stringToBytes32(phone_number);\r\n        pathlab_record[hash]._path_balance=balance;\r\n        pathlab_record[hash]._path_flag=flag;\r\n\r\n        }\r\n\r\n\r\n\r\n    function role_define() public view returns(\r\n        uint role_id\r\n    )\r\n    {   role_id=0;\r\n        if(patient_records[msg.sender]._patient_flag ==1){\r\n            role_id=1;\r\n        }\r\n        else if (doctor_record[msg.sender]._doctor_flag ==1){\r\n            role_id=2;\r\n        }\r\n        else if(pharmacy_record[msg.sender]._pharmacy_flag ==1){\r\n            role_id=3;\r\n        }\r\n        else if(pathlab_record[msg.sender]._path_flag ==1){\r\n            role_id=4;\r\n        }\r\n        else if(msg.sender ==owner){\r\n            role_id=5;\r\n        }\r\n        else{\r\n            role_id=0;\r\n        }\r\n        \r\n    }\r\n    \r\n    function  show_self_deatils (address _patient_hash)  public view only_self \r\n    returns (\r\n        address patient_hash,\r\n        string memory patient_name,\r\n        string memory patient_dob,\r\n        string memory patient_previous_allergies,\r\n        string memory patient_blood_group,\r\n        string memory patient_contact_number,\r\n        string memory patient_emergency_contact_number,\r\n        uint patient_balance,\r\n        uint patient_prescription_length\r\n        \r\n        \r\n        ) {\r\n            patient storage temp = patient_records[_patient_hash];\r\n            \r\n                patient_hash = temp._patient_hash;\r\n                patient_name = bytes32ToString(temp._patient_name);\r\n                patient_dob = bytes32ToString(temp._patient_dob);\r\n                patient_previous_allergies = bytes32ToString(temp._patient_previous_allergies);\r\n                patient_blood_group = bytes32ToString(temp._patient_blood_group);\r\n                patient_contact_number = bytes32ToString(temp._patient_contact_number);\r\n                patient_emergency_contact_number = bytes32ToString(temp._patient_emergency_contact_number);\r\n                patient_balance = temp._patient_balance;\r\n                patient_prescription_length = temp._patient_prescription_length;\r\n                \r\n            \r\n                \r\n        \r\n    }\r\n    \r\n    function search_doctor(address _doctor_hash) public view only_self\r\n    returns (\r\n        address doctor_hash,\r\n        string memory doctor_name,\r\n        string memory doctor_address,\r\n        string memory doctor_phone_number,\r\n        string memory doctor_speciality\r\n        \r\n        ){\r\n            doctor memory temp =doctor_record[_doctor_hash];\r\n            \r\n                doctor_hash=temp._doctor_hash;\r\n                doctor_name=bytes32ToString(temp._doctor_name);\r\n                doctor_address=bytes32ToString(temp._doctor_address);\r\n                doctor_phone_number=bytes32ToString(temp._doctor_phone_number);\r\n                doctor_speciality=bytes32ToString(temp._doctor_speciality);\r\n            \r\n    \r\n    }\r\n    \r\n    function payment(address reciever_hash,uint amount)  public  only_self returns (uint code) {\r\n        code=0;\r\n        address sender_hash=msg.sender;\r\n        uint available_balance=patient_records[sender_hash]._patient_balance;\r\n        if(available_balance >= amount){\r\n            \r\n            \r\n            if (doctor_record[reciever_hash]._doctor_flag ==1){\r\n                \r\n                code=1;\r\n                patient_records[sender_hash].last_transaction=1;\r\n                doctor_record[reciever_hash]._doctor_balance +=amount;\r\n                patient_records[sender_hash]._patient_balance-=amount;\r\n            }\r\n            else if(pharmacy_record[reciever_hash]._pharmacy_flag ==1){\r\n                \r\n                code=1;\r\n                patient_records[sender_hash].last_transaction=1;\r\n                pharmacy_record[reciever_hash]._pharmacy_balance+=amount;\r\n                patient_records[sender_hash]._patient_balance-=amount;\r\n            }\r\n            else if(pathlab_record[reciever_hash]._path_flag ==1){\r\n                \r\n                code=1;\r\n                patient_records[sender_hash].last_transaction=1;\r\n                pathlab_record[reciever_hash]._path_balance+=amount;\r\n                patient_records[sender_hash]._patient_balance-=amount;\r\n            }\r\n            else{\r\n                \r\n                code=0;\r\n                patient_records[sender_hash].last_transaction=0;\r\n            }\r\n\r\n            }\r\n            else{\r\n                code=2;\r\n                patient_records[sender_hash].last_transaction=2;\r\n                \r\n            }\r\n         \r\n        \r\n    }\r\n\r\n\r\n    function patient_last_transaction() public view only_self returns(uint code){\r\n        code=patient_records[msg.sender].last_transaction;\r\n        \r\n    }\r\n    \r\n    function get_total_number_of_prescriptions_by_pharma(address patient_hash) public view only_pharmacy returns(uint total_count){\r\n        total_count=0;\r\n        if(patient_records[patient_hash]._patient_flag==1){\r\n            total_count=patient_records[patient_hash]._patient_prescription_length;\r\n        }\r\n        else{\r\n            total_count=0;\r\n        }\r\n    }\r\n\r\n    function get_total_number_of_prescriptions_by_pathalogy(address patient_hash) public view only_pathology returns(uint total_count){\r\n        total_count=0;\r\n        if(patient_records[patient_hash]._patient_flag==1){\r\n            total_count=patient_records[patient_hash]._patient_prescription_length;\r\n        }\r\n        else{\r\n            total_count=0;\r\n        }\r\n    }\r\n\r\n    function give_prescription(address _doctor_hash,address _patient_hash,string memory  _details_of_prescription) public only_doctor{\r\n        \r\n        string memory  _current_patient=bytes32ToString(patient_records[_patient_hash]._patient_name);\r\n        string memory  _current_doctor =bytes32ToString( doctor_record[_doctor_hash]._doctor_name);\r\n        uint256 _current_time=block.timestamp;\r\n        \r\n        patient_records[_patient_hash]._patient_prescription_length+=1;  //increasing the length of the prescription array.\r\n        bytes32 prescription_hash= bytes32(keccak256(abi.encodePacked(_doctor_hash,_patient_hash,_current_time,_details_of_prescription)));  //computing the hash or a prescription.\r\n        patient_records[_patient_hash]._prescription_list.push(prescription_hash);   //adding prescriptoin hash generated in the array\r\n        \r\n        prescription memory _new_prescription= prescription(\r\n            stringToBytes32(_current_doctor),\r\n            stringToBytes32(_current_patient),\r\n            _current_time,\r\n            _details_of_prescription\r\n            );\r\n            \r\n        patient_records[_patient_hash]._patient_prescription_record[prescription_hash]=_new_prescription;\r\n        \r\n        \r\n        \r\n    }\r\n    \r\n    function view_patient_details(address _patient_hash) public view only_doctor\r\n    returns (\r\n        address patient_hash,\r\n        string memory patient_name,\r\n        string memory patient_dob,\r\n        string memory patient_previous_allergies,\r\n        string memory patient_blood_group,\r\n        string memory patient_contact_number,\r\n        string memory patient_emergency_contact_number,\r\n        uint patient_prescription_length\r\n        \r\n        ) {\r\n            patient storage temp = patient_records[_patient_hash];\r\n            \r\n                 \r\n                patient_hash=temp._patient_hash;\r\n                patient_name=bytes32ToString(temp._patient_name);\r\n                patient_dob=bytes32ToString(temp._patient_dob);\r\n                patient_previous_allergies=bytes32ToString(temp._patient_previous_allergies);\r\n                patient_blood_group=bytes32ToString(temp._patient_blood_group);\r\n                patient_contact_number=bytes32ToString(temp._patient_contact_number);\r\n                patient_emergency_contact_number=bytes32ToString(temp._patient_emergency_contact_number);\r\n                patient_prescription_length=temp._patient_prescription_length;\r\n                \r\n                \r\n        \r\n    }\r\n    \r\n    \r\n    function view_prescription_by_doctor(address _patient_hash,uint number) public view only_doctor\r\n    returns(\r\n    string memory doctor_prescribed ,\r\n    string memory patient_prescribed,\r\n    string memory description,\r\n    uint256 time_prescribed\r\n    ){\r\n        uint _current_length_of_prescription = patient_records[_patient_hash]._patient_prescription_length;\r\n        bytes32 _visible_prescription_hash;\r\n        if(_current_length_of_prescription>=number)\r\n            {\r\n                _visible_prescription_hash = patient_records[_patient_hash]._prescription_list[_current_length_of_prescription-number];\r\n                \r\n            }\r\n        \r\n        \r\n        description = (patient_records[_patient_hash]._patient_prescription_record[_visible_prescription_hash]._description);\r\n        doctor_prescribed = bytes32ToString(patient_records[_patient_hash]._patient_prescription_record[_visible_prescription_hash]._doctor_name);\r\n        patient_prescribed = bytes32ToString(patient_records[_patient_hash]._patient_prescription_record[_visible_prescription_hash]._patient_name);\r\n        time_prescribed = patient_records[_patient_hash]._patient_prescription_record[_visible_prescription_hash]._timestamp;\r\n        \r\n        \r\n        \r\n    }\r\n    \r\n    function view_prescription_by_pharma (address _patient_hash,uint number) public view only_pharmacy\r\n    returns(\r\n    string memory doctor_prescribed ,\r\n    string memory patient_prescribed,\r\n    string memory description,\r\n    uint256 time_prescribed\r\n    ){\r\n        uint _current_length_of_prescription = patient_records[_patient_hash]._patient_prescription_length;\r\n        bytes32 _visible_prescription_hash;\r\n        if(_current_length_of_prescription>=number)\r\n            {\r\n                _visible_prescription_hash = patient_records[_patient_hash]._prescription_list[_current_length_of_prescription-number];\r\n                \r\n            }\r\n        \r\n        \r\n        \r\n          description = (patient_records[_patient_hash]._patient_prescription_record[_visible_prescription_hash]._description);\r\n          doctor_prescribed = bytes32ToString(patient_records[_patient_hash]._patient_prescription_record[_visible_prescription_hash]._doctor_name);\r\n          patient_prescribed = bytes32ToString(patient_records[_patient_hash]._patient_prescription_record[_visible_prescription_hash]._patient_name);\r\n          time_prescribed = patient_records[_patient_hash]._patient_prescription_record[_visible_prescription_hash]._timestamp;\r\n        \r\n        \r\n        \r\n    }\r\n\r\n    function view_prescription_by_pathlab(address _patient_hash,uint number) public view only_pathology\r\n    returns(\r\n    string memory doctor_prescribed ,\r\n    string memory patient_prescribed,\r\n    string memory description,\r\n    uint256 time_prescribed\r\n    ){\r\n        uint _current_length_of_prescription = patient_records[_patient_hash]._patient_prescription_length;\r\n        bytes32 _visible_prescription_hash;\r\n        if(_current_length_of_prescription>=number)\r\n            {\r\n                _visible_prescription_hash = patient_records[_patient_hash]._prescription_list[_current_length_of_prescription-number];\r\n                \r\n            }\r\n        \r\n        \r\n        \r\n          description = (patient_records[_patient_hash]._patient_prescription_record[_visible_prescription_hash]._description);\r\n          doctor_prescribed = bytes32ToString(patient_records[_patient_hash]._patient_prescription_record[_visible_prescription_hash]._doctor_name);\r\n          patient_prescribed = bytes32ToString(patient_records[_patient_hash]._patient_prescription_record[_visible_prescription_hash]._patient_name);\r\n          time_prescribed = patient_records[_patient_hash]._patient_prescription_record[_visible_prescription_hash]._timestamp;\r\n        \r\n        \r\n        \r\n    }\r\n    \r\n}",
  "sourcePath": "C:/Users/rishi/Documents/GitHub/hack420/truffleblk/contracts/hack.sol",
  "compiler": {
    "name": "solc",
    "version": "0.5.16+commit.9c3226ce.Emscripten.clang"
  },
  "schemaVersion": "3.3.4",
  "updatedAt": "2021-04-09T19:30:31.325Z",
  "networkType": "ethereum",
  "devdoc": {
    "methods": {}
  },
  "userdoc": {
    "methods": {}
  }
}