{
  "contractName": "hack",
  "abi": [
    {
      "inputs": [],
      "payable": false,
      "stateMutability": "nonpayable",
      "type": "constructor"
    },
    {
      "constant": true,
      "inputs": [
        {
          "internalType": "bytes32",
          "name": "_bytes32",
          "type": "bytes32"
        }
      ],
      "name": "bytes32ToString",
      "outputs": [
        {
          "internalType": "string",
          "name": "",
          "type": "string"
        }
      ],
      "payable": false,
      "stateMutability": "pure",
      "type": "function"
    },
    {
      "constant": true,
      "inputs": [
        {
          "internalType": "string",
          "name": "source",
          "type": "string"
        }
      ],
      "name": "stringToBytes32",
      "outputs": [
        {
          "internalType": "bytes32",
          "name": "result",
          "type": "bytes32"
        }
      ],
      "payable": false,
      "stateMutability": "pure",
      "type": "function"
    },
    {
      "constant": false,
      "inputs": [
        {
          "internalType": "address",
          "name": "patient_hash",
          "type": "address"
        },
        {
          "internalType": "string",
          "name": "name",
          "type": "string"
        },
        {
          "internalType": "string",
          "name": "dob",
          "type": "string"
        },
        {
          "internalType": "string",
          "name": "prev_allergies",
          "type": "string"
        },
        {
          "internalType": "string",
          "name": "blood_group",
          "type": "string"
        },
        {
          "internalType": "uint256",
          "name": "balance",
          "type": "uint256"
        },
        {
          "internalType": "string",
          "name": "contact_number",
          "type": "string"
        },
        {
          "internalType": "string",
          "name": "emergency_contact_number",
          "type": "string"
        },
        {
          "internalType": "uint256",
          "name": "description_length",
          "type": "uint256"
        },
        {
          "internalType": "uint256",
          "name": "patient_flag",
          "type": "uint256"
        },
        {
          "internalType": "address",
          "name": "owner_hash",
          "type": "address"
        }
      ],
      "name": "add_patient",
      "outputs": [],
      "payable": false,
      "stateMutability": "nonpayable",
      "type": "function"
    },
    {
      "constant": false,
      "inputs": [
        {
          "internalType": "address",
          "name": "_doctor_hash",
          "type": "address"
        },
        {
          "internalType": "string",
          "name": "name",
          "type": "string"
        },
        {
          "internalType": "string",
          "name": "specialisation",
          "type": "string"
        },
        {
          "internalType": "string",
          "name": "phone_number",
          "type": "string"
        },
        {
          "internalType": "string",
          "name": "address_of_doctor",
          "type": "string"
        },
        {
          "internalType": "uint256",
          "name": "balance",
          "type": "uint256"
        },
        {
          "internalType": "uint256",
          "name": "flag",
          "type": "uint256"
        },
        {
          "internalType": "address",
          "name": "owner_hash",
          "type": "address"
        }
      ],
      "name": "add_doctor",
      "outputs": [],
      "payable": false,
      "stateMutability": "nonpayable",
      "type": "function"
    },
    {
      "constant": false,
      "inputs": [
        {
          "internalType": "address",
          "name": "hash",
          "type": "address"
        },
        {
          "internalType": "string",
          "name": "name",
          "type": "string"
        },
        {
          "internalType": "string",
          "name": "temp_address",
          "type": "string"
        },
        {
          "internalType": "string",
          "name": "phone_number",
          "type": "string"
        },
        {
          "internalType": "uint256",
          "name": "balance",
          "type": "uint256"
        },
        {
          "internalType": "uint256",
          "name": "flag",
          "type": "uint256"
        },
        {
          "internalType": "address",
          "name": "owner_hash",
          "type": "address"
        }
      ],
      "name": "add_pharmacy",
      "outputs": [],
      "payable": false,
      "stateMutability": "nonpayable",
      "type": "function"
    },
    {
      "constant": false,
      "inputs": [
        {
          "internalType": "address",
          "name": "hash",
          "type": "address"
        },
        {
          "internalType": "string",
          "name": "name",
          "type": "string"
        },
        {
          "internalType": "string",
          "name": "temp_address",
          "type": "string"
        },
        {
          "internalType": "string",
          "name": "phone_number",
          "type": "string"
        },
        {
          "internalType": "uint256",
          "name": "balance",
          "type": "uint256"
        },
        {
          "internalType": "uint256",
          "name": "flag",
          "type": "uint256"
        },
        {
          "internalType": "address",
          "name": "owner_hash",
          "type": "address"
        }
      ],
      "name": "add_path",
      "outputs": [],
      "payable": false,
      "stateMutability": "nonpayable",
      "type": "function"
    },
    {
      "constant": true,
      "inputs": [
        {
          "internalType": "address",
          "name": "owner_hash",
          "type": "address"
        }
      ],
      "name": "role_define",
      "outputs": [
        {
          "internalType": "uint256",
          "name": "role_id",
          "type": "uint256"
        }
      ],
      "payable": false,
      "stateMutability": "view",
      "type": "function"
    },
    {
      "constant": true,
      "inputs": [
        {
          "internalType": "address",
          "name": "owner_hash",
          "type": "address"
        }
      ],
      "name": "get_msg_sender",
      "outputs": [
        {
          "internalType": "address",
          "name": "sender",
          "type": "address"
        }
      ],
      "payable": false,
      "stateMutability": "view",
      "type": "function"
    },
    {
      "constant": true,
      "inputs": [
        {
          "internalType": "address",
          "name": "_patient_hash",
          "type": "address"
        },
        {
          "internalType": "address",
          "name": "owner_hash",
          "type": "address"
        }
      ],
      "name": "show_self_deatils",
      "outputs": [
        {
          "internalType": "address",
          "name": "patient_hash",
          "type": "address"
        },
        {
          "internalType": "string",
          "name": "patient_name",
          "type": "string"
        },
        {
          "internalType": "string",
          "name": "patient_dob",
          "type": "string"
        },
        {
          "internalType": "string",
          "name": "patient_previous_allergies",
          "type": "string"
        },
        {
          "internalType": "string",
          "name": "patient_blood_group",
          "type": "string"
        },
        {
          "internalType": "string",
          "name": "patient_contact_number",
          "type": "string"
        },
        {
          "internalType": "string",
          "name": "patient_emergency_contact_number",
          "type": "string"
        },
        {
          "internalType": "uint256",
          "name": "patient_balance",
          "type": "uint256"
        },
        {
          "internalType": "uint256",
          "name": "patient_prescription_length",
          "type": "uint256"
        }
      ],
      "payable": false,
      "stateMutability": "view",
      "type": "function"
    },
    {
      "constant": true,
      "inputs": [
        {
          "internalType": "address",
          "name": "_doctor_hash",
          "type": "address"
        },
        {
          "internalType": "address",
          "name": "owner_hash",
          "type": "address"
        }
      ],
      "name": "search_doctor",
      "outputs": [
        {
          "internalType": "address",
          "name": "doctor_hash",
          "type": "address"
        },
        {
          "internalType": "string",
          "name": "doctor_name",
          "type": "string"
        },
        {
          "internalType": "string",
          "name": "doctor_address",
          "type": "string"
        },
        {
          "internalType": "string",
          "name": "doctor_phone_number",
          "type": "string"
        },
        {
          "internalType": "string",
          "name": "doctor_speciality",
          "type": "string"
        }
      ],
      "payable": false,
      "stateMutability": "view",
      "type": "function"
    },
    {
      "constant": false,
      "inputs": [
        {
          "internalType": "address",
          "name": "reciever_hash",
          "type": "address"
        },
        {
          "internalType": "uint256",
          "name": "amount",
          "type": "uint256"
        },
        {
          "internalType": "address",
          "name": "owner_hash",
          "type": "address"
        }
      ],
      "name": "payment",
      "outputs": [
        {
          "internalType": "uint256",
          "name": "code",
          "type": "uint256"
        }
      ],
      "payable": false,
      "stateMutability": "nonpayable",
      "type": "function"
    },
    {
      "constant": true,
      "inputs": [
        {
          "internalType": "address",
          "name": "owner_hash",
          "type": "address"
        }
      ],
      "name": "patient_last_transaction",
      "outputs": [
        {
          "internalType": "uint256",
          "name": "code",
          "type": "uint256"
        }
      ],
      "payable": false,
      "stateMutability": "view",
      "type": "function"
    },
    {
      "constant": true,
      "inputs": [
        {
          "internalType": "address",
          "name": "patient_hash",
          "type": "address"
        },
        {
          "internalType": "address",
          "name": "owner_hash",
          "type": "address"
        }
      ],
      "name": "get_total_number_of_prescriptions_by_pharma",
      "outputs": [
        {
          "internalType": "uint256",
          "name": "total_count",
          "type": "uint256"
        }
      ],
      "payable": false,
      "stateMutability": "view",
      "type": "function"
    },
    {
      "constant": true,
      "inputs": [
        {
          "internalType": "address",
          "name": "patient_hash",
          "type": "address"
        },
        {
          "internalType": "address",
          "name": "owner_hash",
          "type": "address"
        }
      ],
      "name": "get_total_number_of_prescriptions_by_pathalogy",
      "outputs": [
        {
          "internalType": "uint256",
          "name": "total_count",
          "type": "uint256"
        }
      ],
      "payable": false,
      "stateMutability": "view",
      "type": "function"
    },
    {
      "constant": false,
      "inputs": [
        {
          "internalType": "address",
          "name": "_doctor_hash",
          "type": "address"
        },
        {
          "internalType": "address",
          "name": "_patient_hash",
          "type": "address"
        },
        {
          "internalType": "string",
          "name": "_details_of_prescription",
          "type": "string"
        }
      ],
      "name": "give_prescription",
      "outputs": [],
      "payable": false,
      "stateMutability": "nonpayable",
      "type": "function"
    },
    {
      "constant": true,
      "inputs": [
        {
          "internalType": "address",
          "name": "_patient_hash",
          "type": "address"
        },
        {
          "internalType": "address",
          "name": "owner_hash",
          "type": "address"
        }
      ],
      "name": "view_patient_details",
      "outputs": [
        {
          "internalType": "address",
          "name": "patient_hash",
          "type": "address"
        },
        {
          "internalType": "string",
          "name": "patient_name",
          "type": "string"
        },
        {
          "internalType": "string",
          "name": "patient_dob",
          "type": "string"
        },
        {
          "internalType": "string",
          "name": "patient_previous_allergies",
          "type": "string"
        },
        {
          "internalType": "string",
          "name": "patient_blood_group",
          "type": "string"
        },
        {
          "internalType": "string",
          "name": "patient_contact_number",
          "type": "string"
        },
        {
          "internalType": "string",
          "name": "patient_emergency_contact_number",
          "type": "string"
        },
        {
          "internalType": "uint256",
          "name": "patient_prescription_length",
          "type": "uint256"
        }
      ],
      "payable": false,
      "stateMutability": "view",
      "type": "function"
    },
    {
      "constant": true,
      "inputs": [
        {
          "internalType": "address",
          "name": "_patient_hash",
          "type": "address"
        },
        {
          "internalType": "uint256",
          "name": "number",
          "type": "uint256"
        },
        {
          "internalType": "address",
          "name": "owner_hash",
          "type": "address"
        }
      ],
      "name": "view_prescription_by_doctor",
      "outputs": [
        {
          "internalType": "string",
          "name": "doctor_prescribed",
          "type": "string"
        },
        {
          "internalType": "string",
          "name": "patient_prescribed",
          "type": "string"
        },
        {
          "internalType": "string",
          "name": "description",
          "type": "string"
        },
        {
          "internalType": "uint256",
          "name": "time_prescribed",
          "type": "uint256"
        }
      ],
      "payable": false,
      "stateMutability": "view",
      "type": "function"
    },
    {
      "constant": true,
      "inputs": [
        {
          "internalType": "address",
          "name": "_patient_hash",
          "type": "address"
        },
        {
          "internalType": "uint256",
          "name": "number",
          "type": "uint256"
        },
        {
          "internalType": "address",
          "name": "owner_hash",
          "type": "address"
        }
      ],
      "name": "view_prescription_by_pharma",
      "outputs": [
        {
          "internalType": "string",
          "name": "doctor_prescribed",
          "type": "string"
        },
        {
          "internalType": "string",
          "name": "patient_prescribed",
          "type": "string"
        },
        {
          "internalType": "string",
          "name": "description",
          "type": "string"
        },
        {
          "internalType": "uint256",
          "name": "time_prescribed",
          "type": "uint256"
        }
      ],
      "payable": false,
      "stateMutability": "view",
      "type": "function"
    },
    {
      "constant": true,
      "inputs": [
        {
          "internalType": "address",
          "name": "_patient_hash",
          "type": "address"
        },
        {
          "internalType": "uint256",
          "name": "number",
          "type": "uint256"
        },
        {
          "internalType": "address",
          "name": "owner_hash",
          "type": "address"
        }
      ],
      "name": "view_prescription_by_pathlab",
      "outputs": [
        {
          "internalType": "string",
          "name": "doctor_prescribed",
          "type": "string"
        },
        {
          "internalType": "string",
          "name": "patient_prescribed",
          "type": "string"
        },
        {
          "internalType": "string",
          "name": "description",
          "type": "string"
        },
        {
          "internalType": "uint256",
          "name": "time_prescribed",
          "type": "uint256"
        }
      ],
      "payable": false,
      "stateMutability": "view",
      "type": "function"
    }
  ],
  "bytecode": "0x608060405234801561001057600080fd5b5033600460006101000a81548173ffffffffffffffffffffffffffffffffffffffff021916908373ffffffffffffffffffffffffffffffffffffffff1602179055506134c6806100616000396000f3fe608060405234801561001057600080fd5b50600436106101215760003560e01c80636fffc15c116100ad578063d288dbb311610071578063d288dbb31461038e578063d2a36c39146103c2578063f818835a146103f2578063fe9a02ca1461040e578063ff100ce41461043e57610121565b80636fffc15c146102c6578063865ad740146102e25780639201de5514610312578063b95e26f014610342578063cfb519281461035e57610121565b806342d8d2c9116100f457806342d8d2c9146101d95780635833e57d1461020c5780635b5b26751461022857806361b8d5c41461025b578063628b18481461029357610121565b80630ff2125114610126578063194e58681461015d578063265a74711461018d57806342ccd527146101a9575b600080fd5b610140600480360361013b9190810190612a6c565b61046e565b6040516101549897969594939291906130d9565b60405180910390f35b61017760048036036101729190810190612a43565b61059e565b60405161018491906132cf565b60405180910390f35b6101a760048036036101a29190810190612da1565b6105e9565b005b6101c360048036036101be9190810190612e87565b610845565b6040516101d091906132cf565b60405180910390f35b6101f360048036036101ee9190810190612e87565b610d3d565b6040516102039493929190613275565b60405180910390f35b61022660048036036102219190810190612b0f565b61104e565b005b610242600480360361023d9190810190612e87565b61141f565b6040516102529493929190613275565b60405180910390f35b61027560048036036102709190810190612a6c565b611730565b60405161028a99989796959493929190613181565b60405180910390f35b6102ad60048036036102a89190810190612e87565b611868565b6040516102bd9493929190613275565b60405180910390f35b6102e060048036036102db9190810190612c8f565b611b78565b005b6102fc60048036036102f79190810190612a43565b611d07565b60405161030991906132cf565b60405180910390f35b61032c60048036036103279190810190612ed6565b611ec7565b6040516103399190613253565b60405180910390f35b61035c60048036036103579190810190612da1565b612024565b005b61037860048036036103739190810190612eff565b612280565b6040516103859190613238565b60405180910390f35b6103a860048036036103a39190810190612a6c565b6122ab565b6040516103b995949392919061306a565b60405180910390f35b6103dc60048036036103d79190810190612a43565b612432565b6040516103e9919061304f565b60405180910390f35b61040c60048036036104079190810190612aa8565b61243c565b005b61042860048036036104239190810190612a6c565b6126a0565b60405161043591906132cf565b60405180910390f35b61045860048036036104539190810190612a6c565b61278f565b60405161046591906132cf565b60405180910390f35b6000606080606080606080600060018060008b73ffffffffffffffffffffffffffffffffffffffff1673ffffffffffffffffffffffffffffffffffffffff1681526020019081526020016000206006015414156105915760008060008c73ffffffffffffffffffffffffffffffffffffffff1673ffffffffffffffffffffffffffffffffffffffff16815260200190815260200160002090508060000160009054906101000a900473ffffffffffffffffffffffffffffffffffffffff16985061053b8160010154611ec7565b975061054a8160020154611ec7565b96506105598160030154611ec7565b95506105688160040154611ec7565b94506105778160070154611ec7565b93506105868160080154611ec7565b925080600901549150505b9295985092959890939650565b60008060008373ffffffffffffffffffffffffffffffffffffffff1673ffffffffffffffffffffffffffffffffffffffff168152602001908152602001600020600601549050919050565b8073ffffffffffffffffffffffffffffffffffffffff16600460009054906101000a900473ffffffffffffffffffffffffffffffffffffffff1673ffffffffffffffffffffffffffffffffffffffff16141561083c5786600360008973ffffffffffffffffffffffffffffffffffffffff1673ffffffffffffffffffffffffffffffffffffffff16815260200190815260200160002060000160006101000a81548173ffffffffffffffffffffffffffffffffffffffff021916908373ffffffffffffffffffffffffffffffffffffffff1602179055506106c986612280565b600360008973ffffffffffffffffffffffffffffffffffffffff1673ffffffffffffffffffffffffffffffffffffffff1681526020019081526020016000206001018190555061071885612280565b600360008973ffffffffffffffffffffffffffffffffffffffff1673ffffffffffffffffffffffffffffffffffffffff1681526020019081526020016000206002018190555061076784612280565b600360008973ffffffffffffffffffffffffffffffffffffffff1673ffffffffffffffffffffffffffffffffffffffff1681526020019081526020016000206003018190555082600360008973ffffffffffffffffffffffffffffffffffffffff1673ffffffffffffffffffffffffffffffffffffffff1681526020019081526020016000206004018190555081600360008973ffffffffffffffffffffffffffffffffffffffff1673ffffffffffffffffffffffffffffffffffffffff168152602001908152602001600020600501819055505b50505050505050565b600060016000808473ffffffffffffffffffffffffffffffffffffffff1673ffffffffffffffffffffffffffffffffffffffff168152602001908152602001600020600a01541415610d365760009050600082905060008060008373ffffffffffffffffffffffffffffffffffffffff1673ffffffffffffffffffffffffffffffffffffffff168152602001908152602001600020600501549050848110610ce75760018060008873ffffffffffffffffffffffffffffffffffffffff1673ffffffffffffffffffffffffffffffffffffffff168152602001908152602001600020600601541415610a20576001925060016000808473ffffffffffffffffffffffffffffffffffffffff1673ffffffffffffffffffffffffffffffffffffffff1681526020019081526020016000206006018190555084600160008873ffffffffffffffffffffffffffffffffffffffff1673ffffffffffffffffffffffffffffffffffffffff16815260200190815260200160002060050160008282540192505081905550846000808473ffffffffffffffffffffffffffffffffffffffff1673ffffffffffffffffffffffffffffffffffffffff16815260200190815260200160002060050160008282540392505081905550610ce2565b6001600260008873ffffffffffffffffffffffffffffffffffffffff1673ffffffffffffffffffffffffffffffffffffffff168152602001908152602001600020600501541415610b5a576001925060016000808473ffffffffffffffffffffffffffffffffffffffff1673ffffffffffffffffffffffffffffffffffffffff1681526020019081526020016000206006018190555084600260008873ffffffffffffffffffffffffffffffffffffffff1673ffffffffffffffffffffffffffffffffffffffff16815260200190815260200160002060040160008282540192505081905550846000808473ffffffffffffffffffffffffffffffffffffffff1673ffffffffffffffffffffffffffffffffffffffff16815260200190815260200160002060050160008282540392505081905550610ce1565b6001600360008873ffffffffffffffffffffffffffffffffffffffff1673ffffffffffffffffffffffffffffffffffffffff168152602001908152602001600020600501541415610c94576001925060016000808473ffffffffffffffffffffffffffffffffffffffff1673ffffffffffffffffffffffffffffffffffffffff1681526020019081526020016000206006018190555084600360008873ffffffffffffffffffffffffffffffffffffffff1673ffffffffffffffffffffffffffffffffffffffff16815260200190815260200160002060040160008282540192505081905550846000808473ffffffffffffffffffffffffffffffffffffffff1673ffffffffffffffffffffffffffffffffffffffff16815260200190815260200160002060050160008282540392505081905550610ce0565b6000925060008060008473ffffffffffffffffffffffffffffffffffffffff1673ffffffffffffffffffffffffffffffffffffffff168152602001908152602001600020600601819055505b5b5b610d33565b6002925060026000808473ffffffffffffffffffffffffffffffffffffffff1673ffffffffffffffffffffffffffffffffffffffff168152602001908152602001600020600601819055505b50505b9392505050565b606080606060006001600260008773ffffffffffffffffffffffffffffffffffffffff1673ffffffffffffffffffffffffffffffffffffffff1681526020019081526020016000206005015414156110455760008060008973ffffffffffffffffffffffffffffffffffffffff1673ffffffffffffffffffffffffffffffffffffffff1681526020019081526020016000206009015490506000878210610e3a576000808a73ffffffffffffffffffffffffffffffffffffffff1673ffffffffffffffffffffffffffffffffffffffff168152602001908152602001600020600b0188830381548110610e2c57fe5b906000526020600020015490505b6000808a73ffffffffffffffffffffffffffffffffffffffff1673ffffffffffffffffffffffffffffffffffffffff168152602001908152602001600020600c0160008281526020019081526020016000206003018054600181600116156101000203166002900480601f016020809104026020016040519081016040528092919081815260200182805460018160011615610100020316600290048015610f235780601f10610ef857610100808354040283529160200191610f23565b820191906000526020600020905b815481529060010190602001808311610f0657829003601f168201915b50505050509350610f886000808b73ffffffffffffffffffffffffffffffffffffffff1673ffffffffffffffffffffffffffffffffffffffff168152602001908152602001600020600c01600083815260200190815260200160002060000154611ec7565b9550610fe86000808b73ffffffffffffffffffffffffffffffffffffffff1673ffffffffffffffffffffffffffffffffffffffff168152602001908152602001600020600c01600083815260200190815260200160002060010154611ec7565b94506000808a73ffffffffffffffffffffffffffffffffffffffff1673ffffffffffffffffffffffffffffffffffffffff168152602001908152602001600020600c01600082815260200190815260200160002060020154925050505b93509350935093565b8073ffffffffffffffffffffffffffffffffffffffff16600460009054906101000a900473ffffffffffffffffffffffffffffffffffffffff1673ffffffffffffffffffffffffffffffffffffffff161415611412578a6000808d73ffffffffffffffffffffffffffffffffffffffff1673ffffffffffffffffffffffffffffffffffffffff16815260200190815260200160002060000160006101000a81548173ffffffffffffffffffffffffffffffffffffffff021916908373ffffffffffffffffffffffffffffffffffffffff16021790555061112d8a612280565b6000808d73ffffffffffffffffffffffffffffffffffffffff1673ffffffffffffffffffffffffffffffffffffffff1681526020019081526020016000206001018190555061117b89612280565b6000808d73ffffffffffffffffffffffffffffffffffffffff1673ffffffffffffffffffffffffffffffffffffffff168152602001908152602001600020600201819055506111c988612280565b6000808d73ffffffffffffffffffffffffffffffffffffffff1673ffffffffffffffffffffffffffffffffffffffff1681526020019081526020016000206003018190555061121787612280565b6000808d73ffffffffffffffffffffffffffffffffffffffff1673ffffffffffffffffffffffffffffffffffffffff16815260200190815260200160002060040181905550856000808d73ffffffffffffffffffffffffffffffffffffffff1673ffffffffffffffffffffffffffffffffffffffff1681526020019081526020016000206005018190555060008060008d73ffffffffffffffffffffffffffffffffffffffff1673ffffffffffffffffffffffffffffffffffffffff168152602001908152602001600020600601819055506112f285612280565b6000808d73ffffffffffffffffffffffffffffffffffffffff1673ffffffffffffffffffffffffffffffffffffffff1681526020019081526020016000206007018190555061134084612280565b6000808d73ffffffffffffffffffffffffffffffffffffffff1673ffffffffffffffffffffffffffffffffffffffff16815260200190815260200160002060080181905550826000808d73ffffffffffffffffffffffffffffffffffffffff1673ffffffffffffffffffffffffffffffffffffffff16815260200190815260200160002060090181905550816000808d73ffffffffffffffffffffffffffffffffffffffff1673ffffffffffffffffffffffffffffffffffffffff168152602001908152602001600020600a01819055505b5050505050505050505050565b606080606060006001600360008773ffffffffffffffffffffffffffffffffffffffff1673ffffffffffffffffffffffffffffffffffffffff1681526020019081526020016000206005015414156117275760008060008973ffffffffffffffffffffffffffffffffffffffff1673ffffffffffffffffffffffffffffffffffffffff168152602001908152602001600020600901549050600087821061151c576000808a73ffffffffffffffffffffffffffffffffffffffff1673ffffffffffffffffffffffffffffffffffffffff168152602001908152602001600020600b018883038154811061150e57fe5b906000526020600020015490505b6000808a73ffffffffffffffffffffffffffffffffffffffff1673ffffffffffffffffffffffffffffffffffffffff168152602001908152602001600020600c0160008281526020019081526020016000206003018054600181600116156101000203166002900480601f0160208091040260200160405190810160405280929190818152602001828054600181600116156101000203166002900480156116055780601f106115da57610100808354040283529160200191611605565b820191906000526020600020905b8154815290600101906020018083116115e857829003601f168201915b5050505050935061166a6000808b73ffffffffffffffffffffffffffffffffffffffff1673ffffffffffffffffffffffffffffffffffffffff168152602001908152602001600020600c01600083815260200190815260200160002060000154611ec7565b95506116ca6000808b73ffffffffffffffffffffffffffffffffffffffff1673ffffffffffffffffffffffffffffffffffffffff168152602001908152602001600020600c01600083815260200190815260200160002060010154611ec7565b94506000808a73ffffffffffffffffffffffffffffffffffffffff1673ffffffffffffffffffffffffffffffffffffffff168152602001908152602001600020600c01600082815260200190815260200160002060020154925050505b93509350935093565b600060608060608060608060008060016000808c73ffffffffffffffffffffffffffffffffffffffff1673ffffffffffffffffffffffffffffffffffffffff168152602001908152602001600020600a0154141561185b5760008060008d73ffffffffffffffffffffffffffffffffffffffff1673ffffffffffffffffffffffffffffffffffffffff16815260200190815260200160002090508060000160009054906101000a900473ffffffffffffffffffffffffffffffffffffffff1699506117fe8160010154611ec7565b985061180d8160020154611ec7565b975061181c8160030154611ec7565b965061182b8160040154611ec7565b955061183a8160070154611ec7565b94506118498160080154611ec7565b93508060050154925080600901549150505b9295985092959850929598565b6060806060600060018060008773ffffffffffffffffffffffffffffffffffffffff1673ffffffffffffffffffffffffffffffffffffffff168152602001908152602001600020600601541415611b6f5760008060008973ffffffffffffffffffffffffffffffffffffffff1673ffffffffffffffffffffffffffffffffffffffff1681526020019081526020016000206009015490506000878210611964576000808a73ffffffffffffffffffffffffffffffffffffffff1673ffffffffffffffffffffffffffffffffffffffff168152602001908152602001600020600b018883038154811061195657fe5b906000526020600020015490505b6000808a73ffffffffffffffffffffffffffffffffffffffff1673ffffffffffffffffffffffffffffffffffffffff168152602001908152602001600020600c0160008281526020019081526020016000206003018054600181600116156101000203166002900480601f016020809104026020016040519081016040528092919081815260200182805460018160011615610100020316600290048015611a4d5780601f10611a2257610100808354040283529160200191611a4d565b820191906000526020600020905b815481529060010190602001808311611a3057829003601f168201915b50505050509350611ab26000808b73ffffffffffffffffffffffffffffffffffffffff1673ffffffffffffffffffffffffffffffffffffffff168152602001908152602001600020600c01600083815260200190815260200160002060000154611ec7565b9550611b126000808b73ffffffffffffffffffffffffffffffffffffffff1673ffffffffffffffffffffffffffffffffffffffff168152602001908152602001600020600c01600083815260200190815260200160002060010154611ec7565b94506000808a73ffffffffffffffffffffffffffffffffffffffff1673ffffffffffffffffffffffffffffffffffffffff168152602001908152602001600020600c01600082815260200190815260200160002060020154925050505b93509350935093565b8073ffffffffffffffffffffffffffffffffffffffff16600460009054906101000a900473ffffffffffffffffffffffffffffffffffffffff1673ffffffffffffffffffffffffffffffffffffffff161415611cfd576040518060e001604052808973ffffffffffffffffffffffffffffffffffffffff168152602001611bfe89612280565b8152602001611c0c88612280565b8152602001611c1a87612280565b8152602001611c2886612280565b815260200184815260200183815250600160008a73ffffffffffffffffffffffffffffffffffffffff1673ffffffffffffffffffffffffffffffffffffffff16815260200190815260200160002060008201518160000160006101000a81548173ffffffffffffffffffffffffffffffffffffffff021916908373ffffffffffffffffffffffffffffffffffffffff1602179055506020820151816001015560408201518160020155606082015181600301556080820151816004015560a0820151816005015560c082015181600601559050505b5050505050505050565b600080905060016000808473ffffffffffffffffffffffffffffffffffffffff1673ffffffffffffffffffffffffffffffffffffffff168152602001908152602001600020600a01541415611d5f5760019050611ec2565b60018060008473ffffffffffffffffffffffffffffffffffffffff1673ffffffffffffffffffffffffffffffffffffffff168152602001908152602001600020600601541415611db25760029050611ec1565b6001600260008473ffffffffffffffffffffffffffffffffffffffff1673ffffffffffffffffffffffffffffffffffffffff168152602001908152602001600020600501541415611e065760039050611ec0565b6001600360008473ffffffffffffffffffffffffffffffffffffffff1673ffffffffffffffffffffffffffffffffffffffff168152602001908152602001600020600501541415611e5a5760049050611ebf565b600460009054906101000a900473ffffffffffffffffffffffffffffffffffffffff1673ffffffffffffffffffffffffffffffffffffffff168273ffffffffffffffffffffffffffffffffffffffff161415611eb95760059050611ebe565b600090505b5b5b5b5b919050565b606060008090505b60208160ff16108015611f1a5750600060f81b838260ff1660208110611ef157fe5b1a60f81b7effffffffffffffffffffffffffffffffffffffffffffffffffffffffffffff191614155b15611f2c578080600101915050611ecf565b60608160ff166040519080825280601f01601f191660200182016040528015611f645781602001600182028038833980820191505090505b509050600091505b60208260ff16108015611fb75750600060f81b848360ff1660208110611f8e57fe5b1a60f81b7effffffffffffffffffffffffffffffffffffffffffffffffffffffffffffff191614155b1561201a57838260ff1660208110611fcb57fe5b1a60f81b818360ff1681518110611fde57fe5b60200101907effffffffffffffffffffffffffffffffffffffffffffffffffffffffffffff1916908160001a9053508180600101925050611f6c565b8092505050919050565b8073ffffffffffffffffffffffffffffffffffffffff16600460009054906101000a900473ffffffffffffffffffffffffffffffffffffffff1673ffffffffffffffffffffffffffffffffffffffff1614156122775786600260008973ffffffffffffffffffffffffffffffffffffffff1673ffffffffffffffffffffffffffffffffffffffff16815260200190815260200160002060000160006101000a81548173ffffffffffffffffffffffffffffffffffffffff021916908373ffffffffffffffffffffffffffffffffffffffff16021790555061210486612280565b600260008973ffffffffffffffffffffffffffffffffffffffff1673ffffffffffffffffffffffffffffffffffffffff1681526020019081526020016000206001018190555061215385612280565b600260008973ffffffffffffffffffffffffffffffffffffffff1673ffffffffffffffffffffffffffffffffffffffff168152602001908152602001600020600201819055506121a284612280565b600260008973ffffffffffffffffffffffffffffffffffffffff1673ffffffffffffffffffffffffffffffffffffffff1681526020019081526020016000206003018190555082600260008973ffffffffffffffffffffffffffffffffffffffff1673ffffffffffffffffffffffffffffffffffffffff1681526020019081526020016000206004018190555081600260008973ffffffffffffffffffffffffffffffffffffffff1673ffffffffffffffffffffffffffffffffffffffff168152602001908152602001600020600501819055505b50505050505050565b6000606082905060008151141561229d576000801b9150506122a6565b60208301519150505b919050565b600060608060608060016000808873ffffffffffffffffffffffffffffffffffffffff1673ffffffffffffffffffffffffffffffffffffffff168152602001908152602001600020600a015414156124285761230561287e565b600160008973ffffffffffffffffffffffffffffffffffffffff1673ffffffffffffffffffffffffffffffffffffffff1681526020019081526020016000206040518060e00160405290816000820160009054906101000a900473ffffffffffffffffffffffffffffffffffffffff1673ffffffffffffffffffffffffffffffffffffffff1673ffffffffffffffffffffffffffffffffffffffff16815260200160018201548152602001600282015481526020016003820154815260200160048201548152602001600582015481526020016006820154815250509050806000015195506123f78160200151611ec7565b94506124068160800151611ec7565b93506124158160600151611ec7565b92506124248160400151611ec7565b9150505b9295509295909350565b6000819050919050565b60606124886000808573ffffffffffffffffffffffffffffffffffffffff1673ffffffffffffffffffffffffffffffffffffffff16815260200190815260200160002060010154611ec7565b905060606124d7600160008773ffffffffffffffffffffffffffffffffffffffff1673ffffffffffffffffffffffffffffffffffffffff16815260200190815260200160002060010154611ec7565b9050600042905060016000808773ffffffffffffffffffffffffffffffffffffffff1673ffffffffffffffffffffffffffffffffffffffff168152602001908152602001600020600901600082825401925050819055506000868683876040516020016125479493929190613005565b6040516020818303038152906040528051906020012090506000808773ffffffffffffffffffffffffffffffffffffffff1673ffffffffffffffffffffffffffffffffffffffff168152602001908152602001600020600b018190806001815401808255809150509060018203906000526020600020016000909192909190915055506125d26128dd565b60405180608001604052806125e686612280565b81526020016125f487612280565b8152602001848152602001878152509050806000808973ffffffffffffffffffffffffffffffffffffffff1673ffffffffffffffffffffffffffffffffffffffff168152602001908152602001600020600c016000848152602001908152602001600020600082015181600001556020820151816001015560408201518160020155606082015181600301908051906020019061269292919061290b565b509050505050505050505050565b60008090506001600360008473ffffffffffffffffffffffffffffffffffffffff1673ffffffffffffffffffffffffffffffffffffffff1681526020019081526020016000206005015414156127895760016000808573ffffffffffffffffffffffffffffffffffffffff1673ffffffffffffffffffffffffffffffffffffffff168152602001908152602001600020600a01541415612783576000808473ffffffffffffffffffffffffffffffffffffffff1673ffffffffffffffffffffffffffffffffffffffff168152602001908152602001600020600901549050612788565b600090505b5b92915050565b60008090506001600260008473ffffffffffffffffffffffffffffffffffffffff1673ffffffffffffffffffffffffffffffffffffffff1681526020019081526020016000206005015414156128785760016000808573ffffffffffffffffffffffffffffffffffffffff1673ffffffffffffffffffffffffffffffffffffffff168152602001908152602001600020600a01541415612872576000808473ffffffffffffffffffffffffffffffffffffffff1673ffffffffffffffffffffffffffffffffffffffff168152602001908152602001600020600901549050612877565b600090505b5b92915050565b6040518060e00160405280600073ffffffffffffffffffffffffffffffffffffffff1681526020016000801916815260200160008019168152602001600080191681526020016000801916815260200160008152602001600081525090565b6040518060800160405280600080191681526020016000801916815260200160008152602001606081525090565b828054600181600116156101000203166002900490600052602060002090601f016020900481019282601f1061294c57805160ff191683800117855561297a565b8280016001018555821561297a579182015b8281111561297957825182559160200191906001019061295e565b5b509050612987919061298b565b5090565b6129ad91905b808211156129a9576000816000905550600101612991565b5090565b90565b6000813590506129bf8161343e565b92915050565b6000813590506129d481613455565b92915050565b600082601f8301126129eb57600080fd5b81356129fe6129f982613317565b6132ea565b91508082526020830160208301858383011115612a1a57600080fd5b612a258382846133b0565b50505092915050565b600081359050612a3d8161346c565b92915050565b600060208284031215612a5557600080fd5b6000612a63848285016129b0565b91505092915050565b60008060408385031215612a7f57600080fd5b6000612a8d858286016129b0565b9250506020612a9e858286016129b0565b9150509250929050565b600080600060608486031215612abd57600080fd5b6000612acb868287016129b0565b9350506020612adc868287016129b0565b925050604084013567ffffffffffffffff811115612af957600080fd5b612b05868287016129da565b9150509250925092565b60008060008060008060008060008060006101608c8e031215612b3157600080fd5b6000612b3f8e828f016129b0565b9b505060208c013567ffffffffffffffff811115612b5c57600080fd5b612b688e828f016129da565b9a505060408c013567ffffffffffffffff811115612b8557600080fd5b612b918e828f016129da565b99505060608c013567ffffffffffffffff811115612bae57600080fd5b612bba8e828f016129da565b98505060808c013567ffffffffffffffff811115612bd757600080fd5b612be38e828f016129da565b97505060a0612bf48e828f01612a2e565b96505060c08c013567ffffffffffffffff811115612c1157600080fd5b612c1d8e828f016129da565b95505060e08c013567ffffffffffffffff811115612c3a57600080fd5b612c468e828f016129da565b945050610100612c588e828f01612a2e565b935050610120612c6a8e828f01612a2e565b925050610140612c7c8e828f016129b0565b9150509295989b509295989b9093969950565b600080600080600080600080610100898b031215612cac57600080fd5b6000612cba8b828c016129b0565b985050602089013567ffffffffffffffff811115612cd757600080fd5b612ce38b828c016129da565b975050604089013567ffffffffffffffff811115612d0057600080fd5b612d0c8b828c016129da565b965050606089013567ffffffffffffffff811115612d2957600080fd5b612d358b828c016129da565b955050608089013567ffffffffffffffff811115612d5257600080fd5b612d5e8b828c016129da565b94505060a0612d6f8b828c01612a2e565b93505060c0612d808b828c01612a2e565b92505060e0612d918b828c016129b0565b9150509295985092959890939650565b600080600080600080600060e0888a031215612dbc57600080fd5b6000612dca8a828b016129b0565b975050602088013567ffffffffffffffff811115612de757600080fd5b612df38a828b016129da565b965050604088013567ffffffffffffffff811115612e1057600080fd5b612e1c8a828b016129da565b955050606088013567ffffffffffffffff811115612e3957600080fd5b612e458a828b016129da565b9450506080612e568a828b01612a2e565b93505060a0612e678a828b01612a2e565b92505060c0612e788a828b016129b0565b91505092959891949750929550565b600080600060608486031215612e9c57600080fd5b6000612eaa868287016129b0565b9350506020612ebb86828701612a2e565b9250506040612ecc868287016129b0565b9150509250925092565b600060208284031215612ee857600080fd5b6000612ef6848285016129c5565b91505092915050565b600060208284031215612f1157600080fd5b600082013567ffffffffffffffff811115612f2b57600080fd5b612f37848285016129da565b91505092915050565b612f498161336a565b82525050565b612f60612f5b8261336a565b6133f2565b82525050565b612f6f8161337c565b82525050565b6000612f8082613343565b612f8a818561334e565b9350612f9a8185602086016133bf565b612fa381613420565b840191505092915050565b6000612fb982613343565b612fc3818561335f565b9350612fd38185602086016133bf565b80840191505092915050565b612fe8816133a6565b82525050565b612fff612ffa826133a6565b613416565b82525050565b60006130118287612f4f565b6014820191506130218286612f4f565b6014820191506130318285612fee565b6020820191506130418284612fae565b915081905095945050505050565b60006020820190506130646000830184612f40565b92915050565b600060a08201905061307f6000830188612f40565b81810360208301526130918187612f75565b905081810360408301526130a58186612f75565b905081810360608301526130b98185612f75565b905081810360808301526130cd8184612f75565b90509695505050505050565b6000610100820190506130ef600083018b612f40565b8181036020830152613101818a612f75565b905081810360408301526131158189612f75565b905081810360608301526131298188612f75565b9050818103608083015261313d8187612f75565b905081810360a08301526131518186612f75565b905081810360c08301526131658185612f75565b905061317460e0830184612fdf565b9998505050505050505050565b600061012082019050613197600083018c612f40565b81810360208301526131a9818b612f75565b905081810360408301526131bd818a612f75565b905081810360608301526131d18189612f75565b905081810360808301526131e58188612f75565b905081810360a08301526131f98187612f75565b905081810360c083015261320d8186612f75565b905061321c60e0830185612fdf565b61322a610100830184612fdf565b9a9950505050505050505050565b600060208201905061324d6000830184612f66565b92915050565b6000602082019050818103600083015261326d8184612f75565b905092915050565b6000608082019050818103600083015261328f8187612f75565b905081810360208301526132a38186612f75565b905081810360408301526132b78185612f75565b90506132c66060830184612fdf565b95945050505050565b60006020820190506132e46000830184612fdf565b92915050565b6000604051905081810181811067ffffffffffffffff8211171561330d57600080fd5b8060405250919050565b600067ffffffffffffffff82111561332e57600080fd5b601f19601f8301169050602081019050919050565b600081519050919050565b600082825260208201905092915050565b600081905092915050565b600061337582613386565b9050919050565b6000819050919050565b600073ffffffffffffffffffffffffffffffffffffffff82169050919050565b6000819050919050565b82818337600083830152505050565b60005b838110156133dd5780820151818401526020810190506133c2565b838111156133ec576000848401525b50505050565b60006133fd82613404565b9050919050565b600061340f82613431565b9050919050565b6000819050919050565b6000601f19601f8301169050919050565b60008160601b9050919050565b6134478161336a565b811461345257600080fd5b50565b61345e8161337c565b811461346957600080fd5b50565b613475816133a6565b811461348057600080fd5b5056fea365627a7a72315820b8bf9afd49b4f336c46ceffedff3ce9e518e4dd9572768f4e74103e1adbd79016c6578706572696d656e74616cf564736f6c63430005100040",
  "source": "pragma solidity 0.5.16;\r\npragma experimental ABIEncoderV2;\r\n\r\ncontract hack{\r\n    \r\n    struct prescription{\r\n        \r\n        bytes32 _doctor_name;\r\n        bytes32 _patient_name;\r\n        uint256 _timestamp;\r\n        \r\n        string  _description;\r\n    }\r\n    \r\n    struct patient{\r\n        address _patient_hash;\r\n        bytes32 _patient_name;\r\n        bytes32 _patient_dob;\r\n        bytes32 _patient_previous_allergies;\r\n        bytes32 _patient_blood_group;\r\n        uint _patient_balance;\r\n        uint last_transaction;\r\n        bytes32 _patient_contact_number;\r\n        bytes32 _patient_emergency_contact_number;\r\n        uint _patient_prescription_length;\r\n        uint _patient_flag;\r\n        bytes32 [] _prescription_list;\r\n        mapping(bytes32=>prescription) _patient_prescription_record;\r\n    }\r\n    \r\n    struct doctor{\r\n        address _doctor_hash;\r\n        bytes32 _doctor_name;\r\n        bytes32 _doctor_speciality;\r\n        bytes32 _doctor_phone_number;\r\n        bytes32 _doctor_address;\r\n        uint _doctor_balance;\r\n        uint _doctor_flag;\r\n    }\r\n    \r\n    struct pharmacy{\r\n        address _pharmacy_hash;\r\n        bytes32 _pharmacy_name;\r\n        bytes32 _pharmacy_address;\r\n        bytes32 _pharmacy_phone_number;\r\n        uint _pharmacy_balance;\r\n        uint _pharmacy_flag;\r\n    }\r\n    \r\n    struct pathology{\r\n        address _path_hash;\r\n        bytes32 _path_name;\r\n        bytes32 _path_address;\r\n        bytes32 _path_phone_number;\r\n        uint _path_balance;\r\n        uint _path_flag;\r\n    }\r\n    \r\n    mapping (address=>patient)  patient_records  ;\r\n    mapping(address=>doctor)doctor_record;\r\n    mapping(address=>pharmacy)pharmacy_record;\r\n    mapping(address=>pathology)pathlab_record;\r\n    \r\n    address owner;\r\n    \r\n    constructor () public {\r\n        owner=msg.sender;\r\n    }\r\n    \r\n    modifier only_owner(){\r\n        require(msg.sender==owner);\r\n        _;\r\n    }\r\n    \r\n    modifier only_self(){\r\n        require(patient_records[msg.sender]._patient_flag ==1);\r\n        _;\r\n    }\r\n    \r\n    modifier only_doctor(){\r\n        require(doctor_record[msg.sender]._doctor_flag ==1);\r\n        _;\r\n    }\r\n    \r\n    modifier only_pharmacy(){\r\n        require(pharmacy_record[msg.sender]._pharmacy_flag==1);\r\n        _;\r\n    }\r\n    \r\n    modifier only_pathology(){\r\n        require(pathlab_record[msg.sender]._path_flag==1);\r\n        _;\r\n    }\r\n    \r\n    //==================================function to convert datatypes==================================\r\n    \r\n    function bytes32ToString(bytes32 _bytes32) public pure returns (string memory) {\r\n        uint8 i = 0;\r\n        while(i < 32 && _bytes32[i] != 0) {\r\n            i++;\r\n        }\r\n        bytes memory bytesArray = new bytes(i);\r\n        for (i = 0; i < 32 && _bytes32[i] != 0; i++) {\r\n            bytesArray[i] = _bytes32[i];\r\n        }\r\n        return string(bytesArray);\r\n    }\r\n    \r\n    function stringToBytes32(string memory source) public pure returns (bytes32 result) {\r\n    bytes memory tempEmptyStringTest = bytes(source);\r\n    if (tempEmptyStringTest.length == 0) {\r\n        return 0x0;\r\n    }\r\n\r\n    assembly {\r\n        result := mload(add(source, 32))\r\n    }\r\n}\r\n    \r\n    //===================================================================================================\r\n    \r\n    function add_patient(\r\n    address patient_hash,\r\n    string memory  name,\r\n    string memory  dob,\r\n    string memory  prev_allergies,\r\n    string memory  blood_group,\r\n    uint balance,\r\n    string memory  contact_number,\r\n    string memory  emergency_contact_number,\r\n    uint description_length,\r\n    uint patient_flag,\r\n    address owner_hash\r\n    \r\n    ) public {\r\n        if(owner==owner_hash){\r\n        patient_records[patient_hash]._patient_hash=patient_hash;\r\n        patient_records[patient_hash]._patient_name=stringToBytes32(name);\r\n        patient_records[patient_hash]._patient_dob=stringToBytes32(dob);\r\n        patient_records[patient_hash]._patient_previous_allergies=stringToBytes32(prev_allergies);\r\n        patient_records[patient_hash]._patient_blood_group=stringToBytes32(blood_group);\r\n        patient_records[patient_hash]._patient_balance=balance;\r\n        patient_records[patient_hash].last_transaction=0;\r\n        patient_records[patient_hash]._patient_contact_number=stringToBytes32(contact_number);\r\n        patient_records[patient_hash]._patient_emergency_contact_number=stringToBytes32(emergency_contact_number);\r\n        patient_records[patient_hash]._patient_prescription_length=description_length;\r\n        patient_records[patient_hash]._patient_flag=patient_flag;\r\n        }\r\n        \r\n    }\r\n    \r\n    function add_doctor(\r\n        address _doctor_hash,\r\n        string memory  name,\r\n        string memory  specialisation,\r\n        string memory phone_number,\r\n        string memory  address_of_doctor,\r\n        uint balance,\r\n        uint flag,\r\n        address owner_hash) public {\r\n        if(owner==owner_hash){\r\n        doctor_record[_doctor_hash]=\r\n        doctor(\r\n            _doctor_hash,\r\n            stringToBytes32(name),\r\n            stringToBytes32(specialisation),\r\n            stringToBytes32(phone_number),\r\n            stringToBytes32(address_of_doctor),\r\n            balance,\r\n            flag);\r\n        }\r\n        \r\n    }\r\n    \r\n    function add_pharmacy(\r\n        address hash,\r\n        string memory name,\r\n        string memory temp_address,\r\n        string memory phone_number,\r\n        uint balance,\r\n        uint flag,\r\n        address owner_hash) public {\r\n        if(owner==owner_hash){\r\n        pharmacy_record[hash]._pharmacy_hash=hash;\r\n        pharmacy_record[hash]._pharmacy_name=stringToBytes32(name);\r\n        pharmacy_record[hash]._pharmacy_address=stringToBytes32(temp_address);\r\n        pharmacy_record[hash]._pharmacy_phone_number=stringToBytes32(phone_number);\r\n        pharmacy_record[hash]._pharmacy_balance=balance;\r\n        pharmacy_record[hash]._pharmacy_flag=flag;\r\n        }\r\n        }\r\n        \r\n        \r\n    function add_path(\r\n        address hash,\r\n        string memory name,\r\n        string memory temp_address,\r\n        string memory phone_number,\r\n        uint balance,\r\n        uint flag,\r\n        address owner_hash) public {\r\n        if(owner==owner_hash){\r\n        pathlab_record[hash]._path_hash=hash;\r\n        pathlab_record[hash]._path_name=stringToBytes32(name);\r\n        pathlab_record[hash]._path_address=stringToBytes32(temp_address);\r\n        pathlab_record[hash]._path_phone_number=stringToBytes32(phone_number);\r\n        pathlab_record[hash]._path_balance=balance;\r\n        pathlab_record[hash]._path_flag=flag;\r\n        }\r\n        }\r\n\r\n\r\n\r\n    function role_define(address owner_hash) public view returns(\r\n        uint role_id\r\n    )\r\n    {   role_id=0;\r\n        if(patient_records[owner_hash]._patient_flag ==1){\r\n            role_id=1;\r\n        }\r\n        else if (doctor_record[owner_hash]._doctor_flag ==1){\r\n            role_id=2;\r\n        }\r\n        else if(pharmacy_record[owner_hash]._pharmacy_flag ==1){\r\n            role_id=3;\r\n        }\r\n        else if(pathlab_record[owner_hash]._path_flag ==1){\r\n            role_id=4;\r\n        }\r\n        else if(owner_hash ==owner){\r\n            role_id=5;\r\n        }\r\n        else{\r\n            role_id=0;\r\n        }\r\n        \r\n    }\r\n\r\n    function get_msg_sender(address owner_hash) public view returns(address sender){\r\n        sender=owner_hash;\r\n    }\r\n    \r\n    function  show_self_deatils (address _patient_hash,address owner_hash)  public view  \r\n    returns (\r\n        address patient_hash,\r\n        string memory patient_name,\r\n        string memory patient_dob,\r\n        string memory patient_previous_allergies,\r\n        string memory patient_blood_group,\r\n        string memory patient_contact_number,\r\n        string memory patient_emergency_contact_number,\r\n        uint patient_balance,\r\n        uint patient_prescription_length\r\n        \r\n        \r\n        ) {\r\n            if(patient_records[owner_hash]._patient_flag==1){\r\n            patient storage temp = patient_records[_patient_hash];\r\n            \r\n                patient_hash = temp._patient_hash;\r\n                patient_name = bytes32ToString(temp._patient_name);\r\n                patient_dob = bytes32ToString(temp._patient_dob);\r\n                patient_previous_allergies = bytes32ToString(temp._patient_previous_allergies);\r\n                patient_blood_group = bytes32ToString(temp._patient_blood_group);\r\n                patient_contact_number = bytes32ToString(temp._patient_contact_number);\r\n                patient_emergency_contact_number = bytes32ToString(temp._patient_emergency_contact_number);\r\n                patient_balance = temp._patient_balance;\r\n                patient_prescription_length = temp._patient_prescription_length;\r\n            }\r\n    }\r\n    \r\n    function search_doctor(address _doctor_hash,address owner_hash) public view \r\n    returns (\r\n        address doctor_hash,\r\n        string memory doctor_name,\r\n        string memory doctor_address,\r\n        string memory doctor_phone_number,\r\n        string memory doctor_speciality\r\n        \r\n        ){  if(patient_records[owner_hash]._patient_flag==1){\r\n            doctor memory temp =doctor_record[_doctor_hash];\r\n            \r\n                doctor_hash=temp._doctor_hash;\r\n                doctor_name=bytes32ToString(temp._doctor_name);\r\n                doctor_address=bytes32ToString(temp._doctor_address);\r\n                doctor_phone_number=bytes32ToString(temp._doctor_phone_number);\r\n                doctor_speciality=bytes32ToString(temp._doctor_speciality);\r\n        }\r\n    \r\n    }\r\n    \r\n    function payment(address reciever_hash,uint amount, address owner_hash)  public   returns (uint code) {\r\n        \r\n        if(patient_records[owner_hash]._patient_flag==1){\r\n            code=0;\r\n        address sender_hash=owner_hash;\r\n        uint available_balance=patient_records[sender_hash]._patient_balance;\r\n        if(available_balance >= amount){\r\n            \r\n            \r\n            if (doctor_record[reciever_hash]._doctor_flag ==1){\r\n                \r\n                code=1;\r\n                patient_records[sender_hash].last_transaction=1;\r\n                doctor_record[reciever_hash]._doctor_balance +=amount;\r\n                patient_records[sender_hash]._patient_balance-=amount;\r\n            }\r\n            else if(pharmacy_record[reciever_hash]._pharmacy_flag ==1){\r\n                \r\n                code=1;\r\n                patient_records[sender_hash].last_transaction=1;\r\n                pharmacy_record[reciever_hash]._pharmacy_balance+=amount;\r\n                patient_records[sender_hash]._patient_balance-=amount;\r\n            }\r\n            else if(pathlab_record[reciever_hash]._path_flag ==1){\r\n                \r\n                code=1;\r\n                patient_records[sender_hash].last_transaction=1;\r\n                pathlab_record[reciever_hash]._path_balance+=amount;\r\n                patient_records[sender_hash]._patient_balance-=amount;\r\n            }\r\n            else{\r\n                \r\n                code=0;\r\n                patient_records[sender_hash].last_transaction=0;\r\n            }\r\n\r\n            }\r\n            else{\r\n                code=2;\r\n                patient_records[sender_hash].last_transaction=2;\r\n                \r\n            }\r\n        }\r\n        \r\n    }\r\n\r\n\r\n    function patient_last_transaction(address owner_hash) public view  returns(uint code){\r\n        code=patient_records[owner_hash].last_transaction;\r\n        \r\n    }\r\n    \r\n    function get_total_number_of_prescriptions_by_pharma(address patient_hash,address owner_hash) public view  returns(uint total_count){\r\n        \r\n        total_count=0;\r\n        if(pharmacy_record[owner_hash]._pharmacy_flag==1){\r\n        if(patient_records[patient_hash]._patient_flag==1){\r\n            total_count=patient_records[patient_hash]._patient_prescription_length;\r\n        }\r\n        else{\r\n            total_count=0;\r\n        }\r\n        }\r\n    }\r\n\r\n    function get_total_number_of_prescriptions_by_pathalogy(address patient_hash,address owner_hash) public view  returns(uint total_count){\r\n        total_count=0;\r\n        if(pathlab_record[owner_hash]._path_flag==1){\r\n        if(patient_records[patient_hash]._patient_flag==1){\r\n            total_count=patient_records[patient_hash]._patient_prescription_length;\r\n        }\r\n        else{\r\n            total_count=0;\r\n        }\r\n        }\r\n    }\r\n\r\n    function give_prescription(address _doctor_hash,address _patient_hash,string memory  _details_of_prescription) public {\r\n    \r\n        string memory  _current_patient=bytes32ToString(patient_records[_patient_hash]._patient_name);\r\n        string memory  _current_doctor =bytes32ToString( doctor_record[_doctor_hash]._doctor_name);\r\n        uint256 _current_time=block.timestamp;\r\n        \r\n        patient_records[_patient_hash]._patient_prescription_length+=1;  //increasing the length of the prescription array.\r\n        bytes32 prescription_hash= bytes32(keccak256(abi.encodePacked(_doctor_hash,_patient_hash,_current_time,_details_of_prescription)));  //computing the hash or a prescription.\r\n        patient_records[_patient_hash]._prescription_list.push(prescription_hash);   //adding prescriptoin hash generated in the array\r\n        \r\n        prescription memory _new_prescription= prescription(\r\n            stringToBytes32(_current_doctor),\r\n            stringToBytes32(_current_patient),\r\n            _current_time,\r\n            _details_of_prescription\r\n            );\r\n            \r\n        patient_records[_patient_hash]._patient_prescription_record[prescription_hash]=_new_prescription;\r\n        \r\n        \r\n        \r\n    }\r\n    \r\n    function view_patient_details(address _patient_hash,address owner_hash) public view \r\n    returns (\r\n        address patient_hash,\r\n        string memory patient_name,\r\n        string memory patient_dob,\r\n        string memory patient_previous_allergies,\r\n        string memory patient_blood_group,\r\n        string memory patient_contact_number,\r\n        string memory patient_emergency_contact_number,\r\n        uint patient_prescription_length\r\n        \r\n        ) {\r\n            if(doctor_record[owner_hash]._doctor_flag==1){\r\n            patient storage temp = patient_records[_patient_hash];\r\n            \r\n                 \r\n                patient_hash=temp._patient_hash;\r\n                patient_name=bytes32ToString(temp._patient_name);\r\n                patient_dob=bytes32ToString(temp._patient_dob);\r\n                patient_previous_allergies=bytes32ToString(temp._patient_previous_allergies);\r\n                patient_blood_group=bytes32ToString(temp._patient_blood_group);\r\n                patient_contact_number=bytes32ToString(temp._patient_contact_number);\r\n                patient_emergency_contact_number=bytes32ToString(temp._patient_emergency_contact_number);\r\n                patient_prescription_length=temp._patient_prescription_length;\r\n                \r\n            }\r\n        \r\n    }\r\n    \r\n    \r\n    function view_prescription_by_doctor(address _patient_hash,uint number,address owner_hash) public view \r\n    returns(\r\n    string memory doctor_prescribed ,\r\n    string memory patient_prescribed,\r\n    string memory description,\r\n    uint256 time_prescribed\r\n    ){\r\n        if(doctor_record[owner_hash]._doctor_flag==1){\r\n        uint _current_length_of_prescription = patient_records[_patient_hash]._patient_prescription_length;\r\n        bytes32 _visible_prescription_hash;\r\n        if(_current_length_of_prescription>=number)\r\n            {\r\n                _visible_prescription_hash = patient_records[_patient_hash]._prescription_list[_current_length_of_prescription-number];\r\n                \r\n            }\r\n        \r\n        \r\n        description = (patient_records[_patient_hash]._patient_prescription_record[_visible_prescription_hash]._description);\r\n        doctor_prescribed = bytes32ToString(patient_records[_patient_hash]._patient_prescription_record[_visible_prescription_hash]._doctor_name);\r\n        patient_prescribed = bytes32ToString(patient_records[_patient_hash]._patient_prescription_record[_visible_prescription_hash]._patient_name);\r\n        time_prescribed = patient_records[_patient_hash]._patient_prescription_record[_visible_prescription_hash]._timestamp;\r\n        \r\n        \r\n        }\r\n    }\r\n    \r\n    function view_prescription_by_pharma (address _patient_hash,uint number,address owner_hash) public view \r\n    returns(\r\n    string memory doctor_prescribed ,\r\n    string memory patient_prescribed,\r\n    string memory description,\r\n    uint256 time_prescribed\r\n    ){\r\n        if(pharmacy_record[owner_hash]._pharmacy_flag==1){\r\n        uint _current_length_of_prescription = patient_records[_patient_hash]._patient_prescription_length;\r\n        bytes32 _visible_prescription_hash;\r\n        if(_current_length_of_prescription>=number)\r\n            {\r\n                _visible_prescription_hash = patient_records[_patient_hash]._prescription_list[_current_length_of_prescription-number];\r\n                \r\n            }\r\n        \r\n        \r\n        \r\n          description = (patient_records[_patient_hash]._patient_prescription_record[_visible_prescription_hash]._description);\r\n          doctor_prescribed = bytes32ToString(patient_records[_patient_hash]._patient_prescription_record[_visible_prescription_hash]._doctor_name);\r\n          patient_prescribed = bytes32ToString(patient_records[_patient_hash]._patient_prescription_record[_visible_prescription_hash]._patient_name);\r\n          time_prescribed = patient_records[_patient_hash]._patient_prescription_record[_visible_prescription_hash]._timestamp;\r\n        \r\n        \r\n        }\r\n    }\r\n\r\n    function view_prescription_by_pathlab(address _patient_hash,uint number,address owner_hash) public view \r\n    returns(\r\n    string memory doctor_prescribed ,\r\n    string memory patient_prescribed,\r\n    string memory description,\r\n    uint256 time_prescribed\r\n    ){\r\n        if(pathlab_record[owner_hash]._path_flag==1){\r\n        uint _current_length_of_prescription = patient_records[_patient_hash]._patient_prescription_length;\r\n        bytes32 _visible_prescription_hash;\r\n        if(_current_length_of_prescription>=number)\r\n            {\r\n                _visible_prescription_hash = patient_records[_patient_hash]._prescription_list[_current_length_of_prescription-number];\r\n                \r\n            }\r\n        \r\n        \r\n        \r\n          description = (patient_records[_patient_hash]._patient_prescription_record[_visible_prescription_hash]._description);\r\n          doctor_prescribed = bytes32ToString(patient_records[_patient_hash]._patient_prescription_record[_visible_prescription_hash]._doctor_name);\r\n          patient_prescribed = bytes32ToString(patient_records[_patient_hash]._patient_prescription_record[_visible_prescription_hash]._patient_name);\r\n          time_prescribed = patient_records[_patient_hash]._patient_prescription_record[_visible_prescription_hash]._timestamp;\r\n        \r\n        }\r\n        \r\n    }\r\n    \r\n}",
  "sourcePath": "C:/Users/rishi/Documents/toc/truffleblk/contracts/hack.sol",
  "compiler": {
    "name": "solc",
    "version": "0.5.16+commit.9c3226ce.Emscripten.clang"
  },
  "schemaVersion": "3.3.4",
  "updatedAt": "2021-04-10T12:38:21.629Z",
  "networkType": "ethereum",
  "devdoc": {
    "methods": {}
  },
  "userdoc": {
    "methods": {}
  }
}